:020000040800F2
:1000000038C500202180000871250008C58200083D
:1000100073250008752500087725000800000000FA
:10002000000000000000000000000000792500082A
:100030007B250008000000000F820008651F0008F3
:100040003B8000083B8000083B8000083B800008A4
:100050003B8000083B8000083B8000083B80000894
:100060003B8000083B8000083B8000083B80000884
:100070003B8000083B8000083B8000083B80000874
:100080003B8000083B8000083B8000083B80000864
:100090003B8000083B8000083B8000083B80000854
:1000A0003B8000083B8000083B8000083B80000844
:1000B0003B8000083B8000083B8000083B80000834
:1000C0003B8000083B8000083B8000083B80000824
:1000D0003B800008212B0008352B00083B800008DE
:1000E0003B8000083B8000083B8000083B80000804
:1000F0003B8000083B8000083B8000083B800008F4
:100100003B8000083B8000083B8000083B800008E3
:100110003B8000083B8000083B8000083B800008D3
:100120003B8000083B8000083B8000083B800008C3
:100130003B800008252500083B8000083B80000824
:100140003B8000083B8000083B8000083B800008A3
:100150003B8000083B8000083B8000083B80000893
:100160003B8000083B8000083B8000083B80000883
:100170003B8000083B8000083B8000083B80000873
:100180003B8000083B80000800F002F800F05CF8BB
:100190000AA090E8000C82448344AAF10107DA45E2
:1001A00001D100F051F8AFF2090EBAE80F0013F0D8
:1001B000010F18BFFB1A43F00103184784650100C3
:1001C000A46501000A444FF0000C10F8013B13F045
:1001D000070408BF10F8014B1D1108BF10F8015BA0
:1001E000641E05D010F8016B641E01F8016BF9D193
:1001F00013F0080F1EBF10F8014BAD1C0C1B09D1EA
:100200006D1E58BF01F801CBFAD505E014F8016B5B
:1002100001F8016B6D1EF9D59142D6D370470000ED
:100220000023002400250026103A28BF78C1FBD8FF
:10023000520728BF30C148BF0B6070471FB515F08B
:100240007CF81FBD10B510BD15F040F81146FFF742
:10025000F5FF00F046F815F05EF803B4FFF7F2FF83
:1002600003BC15F063F8000004460D4620A006F01C
:1002700059FA214628A006F055FA29462BA006F087
:1002800051FAFEE710B501F0F1FE2D4806F04AFAEA
:100290002CA22FA131A006F045FA3AA006F042FAAE
:1002A00042A006F03FFA4A4806F03CFA04F080FB10
:1002B00007F06EF807F057FE4649474806F0A5FBE1
:1002C00007F08CF900F0FCF804F0C3FA43A004F046
:1002D0003FF807F051FE04F06AFDBDE8104007F05A
:1002E00093B910B507F07CFFFFF7CCFF002010BDDD
:1002F0000A0D2057726F6E6720706172616D6574B0
:1003000065722076616C75652064657465637465DB
:1003100064206F6E0D0A000020202020202020661F
:10032000696C65202025730D0A0000002020202024
:100330002020206C696E65202025640D0A000000D5
:10034000AC5D010831303A33313A343700000000F7
:100350004170722031312032303138004275696C81
:10036000642074696D653A0909257320202573207E
:1003700062792054616953796E6320436F2E2C4C4F
:1003800074640A00446576696365203A090957690F
:1003900072656C65737320322E3447487A20475259
:1003A0004F554E442049540A0000000056657273B0
:1003B000696F6E203A09095444445F31304D5F3112
:1003C000304D5F4554485F312E312E300A00000019
:1003D000685D01080000022038C500207561727454
:1003E000310000007FB501F0C6FD01F0EBFD01F02A
:1003F000FDFF14F082FC0DF0AEFF3AA006F092F97A
:1004000040F6B83007F09DFB00244FF4967508E0E5
:100410000A2007F096FB2046641CA84201D337A0AF
:1004200016E001F008FE0128F2D102F085F900F093
:100430004DF9002801DA37A00AE000F0A7FD0028F6
:1004400001DA3BA004E000F0EAFA002805DA3FA058
:1004500004B0BDE8704006F065B94FF40070434940
:10046000CDE9001005240F254048CDE902540023B2
:100470003F4A40A1B03807F010FA30B940A006F06A
:1004800051F93A48B03807F059FA4FF4006044493E
:10049000CDE900104248CDE902540023414A42A16F
:1004A000B03807F0FAF9002809D143A006F03AF96C
:1004B00004B03B48BDE87040B03807F03FBA7FBD9C
:1004C0001CB50820142103020022CDE90001AFF27F
:1004D000EB0140A007F07EFA08B107F02FFA0020E8
:1004E0001CBD00005443502F495020696E69746947
:1004F000616C697A6564210A00000000465047413A
:1005000020436F6E666967204572726F722E2E2EC1
:100510000A000000496E7465726661636520696E49
:100520006974206661696C65642E2E2E0A000000D5
:100530004650474120466C61736820696E6974209B
:100540006661696C65642E2E2E0A000075617274F6
:100550002070726F746F636F6C20696E69742066AF
:1005600061696C65642E2E2E0A000000E0030020F5
:10057000B10A0008756172745F63746C000000005A
:10058000756172742070726F746F636C2054617344
:100590006B20696E697420737563657373200A003C
:1005A0009006002001190008756172745F7570670C
:1005B00072616465000000005570677261646520B7
:1005C0005461736B20696E6974207375636573730E
:1005D000200A0000696E697400000000F0B5002276
:1005E000394B144615460A27B1FBF3F630368654CC
:1005F000B1FBF3F603FB1611B3FBF7F3521C86189D
:1006000016F8016C302E00D124B1641C6D1C0A2D2B
:10061000EAD3F0BD0022F9E770B5002302781C464A
:10062000302A04D14278782A0AD0582A08D06FF0AC
:100630002F05C25CAAB16B2A2AD04B2A28D02CE005
:10064000827802B30223C25C5AB1A2F14105052DA2
:1006500009D9A2F16106052E05D91135092D06D952
:1006600030E00C6017E0A2F13006092E01D8303AD4
:1006700004E0052D01D8373A00E0573A5B1C02EB45
:1006800004140B2BDFD301E00B2B00D3002070BD33
:100690001BB1A00207E00120F6E76D2A01D04D2A28
:1006A00003D113B120050860F5E7A2F13006092E49
:1006B00008D804EB840405EB44045B1C14440B2BA6
:1006C000B7D3E3E70020DFE700CA9A3B1CB501215E
:1006D000102008F02EFE01208DF8040002218DF874
:1006E000051000218DF80610564C8DF8070054486F
:1006F0004FF400512060A180009108F07CFC694615
:10070000206808F013FC23464FA251A1534802F081
:1007100017FF002805DA52A006F004F84FF0FF306A
:100720001CBD4849082208394C484A70544A4A605E
:1007300004220A700A46036D002198474149474840
:100740001039486000201CBDCAB201463D4810382F
:10075000406800F070BD01463A481038406800F02B
:100760004DBD0A46C1B237481038406800F082BD1E
:10077000344B10B50A46103B0146586800F090FD16
:10078000204610BD2F4810B510384FF4E832002134
:10079000406800F0E3FC002010BD13460A46014605
:1007A00028481038406800F095BCEBE770B5254C40
:1007B0000A46103C054601462068FFF7EEFF206818
:1007C00028442060002070BD1D4A4FF400510128CC
:1007D00004D0002805D1104608F00DBC104608F0E2
:1007E0000CBC70477CB50121102008F0A2FD01204F
:1007F0008DF8040002218DF80510002544028DF8C3
:1008000006500F4E8DF8070021463046009408F040
:10081000F2FB6946304608F089FB2146304608F075
:10082000ECFB0A2007F08DF92146304608F0E3FB87
:100830008DF804506946304608F078FB7CBD000016
:1008400000100240100000207370693300000000A7
:100850006261736562616E6400000000900E0020AA
:1008600073706920627573206174746163682064B9
:100870006576696365206661696C6564210A0000BC
:10088000A08601004FF4826101602949C160002106
:1008900081604160704770B5826803681446521CDD
:1008A00092FBF3F503FB152243689A4205D121A080
:1008B00005F038FF4FF0FF3070BDC26811558168F8
:1008C0000268491C91FBF2F302FB131181600020C6
:1008D00070BD10B5D0E90123934205D119A005F0F0
:1008E00021FF4FF0FF3010BDC3689A5C0A70D0E959
:1008F0000021491C91FBF2F302FB1311416000201F
:1009000010BDD0E90110814201D1012070470020C3
:10091000704781680268491C91FBF2F302FB1311D6
:100920004068814201D101207047002070470000DB
:10093000F40E002071756575652066756C6C210A72
:100940000000000074686520717565756520697325
:10095000204E554C4C0A000010B5044606F0D9FE56
:10096000F748FFF7D6FF38B1F6A005F0DBFE06F03A
:10097000DBFE4FF0FF3010BD2146F148FFF78BFF43
:1009800006F0D2FEEE48383804F078FB002010BDA7
:100990000146EB4810B5383804F001FB801C00D04C
:1009A000012010BD70B504460846FFF7F1FF4FF077
:1009B000FF3501280AD106F0ACFEE148FFF7A1FFA0
:1009C00030B106F0B1FEE3A005F0ACFE284670BDE4
:1009D0002146DB48FFF77DFF06F0A6FE002070BD34
:1009E00001B5E04801236A460021406804F010F98F
:1009F000002008BD10B500231A4604E010F8014B92
:100A0000521C2344DBB28A42F8DB5842C0B210BD0C
:100A1000CB4810B5703804F031FB002010BD10B584
:100A2000D1A003F0F5FFCF4C6060E8B1032104F0E2
:100A30005EF8CF49606804F027F9C148012300221D
:100A4000CCA1703804F02FFABD4801230022CCA1BC
:100A5000383804F028FA04F1080100200860B8488A
:100A6000FFF710FF002010BD4FF0FF3010BD1CB588
:100A70000020009055218DF80010AA218DF801105A
:100A800001908DF80200A3208DF80300AC480421EA
:100A9000D438FFF7AFFF8DF80400B24805236A464B
:100AA0000021406804F0B4F8B8A005F03BFE1CBD7E
:100AB000A34D5526AA27AB4C92B04FF0800A4FF0B9
:100AC0000009D43D9E480A21703804F068FA0028D5
:100AD00024D010E2DFF88CB20BF1080BDBF8001029
:100AE000A1F5B440A53815D0AC4920889DF8402028
:100AF0000A54401C81B22180642904D9A8A005F0C1
:100B000011FEA4F80090A54A1078552807D0A4F843
:100B100000900AE09DF84000FFF71EFFE2E1208808
:100B2000012802D95078AA28F1D191782088091D8E
:100B30008142F3D2A4F8009001F0FF0C9748FFF730
:100B400059FF964911F80C10814214D02E706F7025
:100B500085F80290A220E870904804216430FFF7E5
:100B600049FF8E4A2871052364320021606804F031
:100B70004FF892A094E18949C878C1284FD00CDC85
:100B8000B2286FD004DCB0286DD0B12811D162E159
:100B9000B32869D0C0280CD112E0C82872D004DC78
:100BA000C22862D0C42804D184E0E6286BD0F8289B
:100BB0006AD02E706F7085F80290A420E87043E12F
:100BC0008A78042A02D9FFF752FF8BE10020012A1C
:100BD00006D0022A06D0032A07D0042A0CD011E03E
:100BE00008790FE0888840BA0CE008794A79000457
:100BF00040EA0220897904E04868C97900BA20F007
:100C0000FF0008430121FFF79FFD8346014670A0C6
:100C100005F088FD2E706F7085F802B06FE08A785D
:100C2000042AD0D80020012A06D0022A06D0032A9E
:100C300007D0042A0CD011E008790FE0888840BA68
:100C40000CE008794A79000440EA0220897904E03E
:100C50004868C97900BA20F0FF0008430021FFF777
:100C600073FD49E014E1C2E01DE18A78042AAAD8A4
:100C70000020012A09D0022A09D0032A0AD0042A16
:100C80000FD014E01CE142E0A4E008790FE088886E
:100C900040BA0CE008794A79000440EA02208979D8
:100CA00004E04868C97900BA20F0FF000843FFF764
:100CB00052FD21E08A78042A85D80020012A06D036
:100CC000022A06D0032A07D0042A0CD011E00879A2
:100CD0000FE0888840BA0CE008794A79000440EABD
:100CE0000220897904E04868C97900BA20F0FF0041
:100CF00008430021FFF735FD2E706F70A87027485C
:100D000003216430FFF776FEE8700423E5E02E70DF
:100D10006F704520A87085F803A040216846FFF752
:100D200027FD40226946281D14F052FA1B48442131
:100D30006430FFF75FFE85F844004523CDE00000F6
:100D40004014002051756575652066756C6C202116
:100D500021210A00517565756520656D70747920D3
:100D600021210A0018000020756172743200000011
:100D7000110A000873656D5F6374726C5F727800AE
:100D800073656D5F71756575650000006C656E203B
:100D90006572726F7220210A0000000008130020A3
:100DA00072645F696E646578206F7574206F662069
:100DB00072616E67652025640A00000063686563E0
:100DC0006B2064617461206572726F7220210A0069
:100DD00025640A0041464AA005F0A4FC2E706F70FD
:100DE0000120A87085F803A085F804806FE048A072
:100DF00005F098FC0120FFF7E7FCFFF7F3FC4FF448
:100E0000FA7006F09EFE0020FFF7DEFC4FF47A70C9
:100E100006F097FEFFF7C9FC4FF4006B4FF0010896
:100E20005946424808F0E9F80A2006F08AFE594679
:100E30003E4808F0E0F83EA005F074FC2E706F709C
:100E400085F8029085F803A004213B48FFF7D2FD06
:100E50002871052341E04FF0010838A005F062FC3D
:100E60002E706F7085F8029085F803A00421324837
:100E7000FFF7C0FD287105232F4A0021606803F0A9
:100E8000C7FE45F6A521CBF800108BF8049029E0A9
:100E900030A005F047FC00F0CFF84FF0010824A087
:100EA00005F040FC1EE04FF0010832A005F03AFCCE
:100EB00045F6A521CBF8001001218BF8041011E0B4
:100EC0002E706F700120A87085F803A0287105218D
:100ED0001948FFF78FFD68710623174A00216068E3
:100EE00003F096FE012310AA0021606803F06AFE59
:100EF00001283FF4EFAD142006F023FEE2E50000E8
:100F00007265616420636D64203A307825780A0048
:100F10005374617274206572617365206D6375200E
:100F2000666C6173682E2E2E0A00000000040240D9
:100F3000446F6E650A0000006C13002070726F67CA
:100F400072616D206D637520666C6173682E2E2E44
:100F50000A00000073746172742065726173652009
:100F60006670676120666C6173682E2E2E2E2E2EA1
:100F70000A00000070726F6772616D2066706761B1
:100F800020666C6173682E2E2E0A00001CB50121AC
:100F9000084608F0CEF901208DF8040002218DF8F2
:100FA000051000218DF806102C4C8DF807002A48FA
:100FB00010212060A180009108F01DF8694620688A
:100FC00007F0B4FF234626A227A1294802F0B8FA69
:100FD000002805DA27A005F0A5FB4FF0FF301CBD67
:100FE0001E490822083922484A702A4A4A600422C7
:100FF0000A700A46036D002198471BA000F00BFC05
:1010000016491039486000201CBD144810B510382E
:101010004FF080724068002143699847002010BD5E
:1010200030B405460D48134610380A464068294634
:101030000469A44630BC6047E7E770B5074C0A4630
:10104000103C054601462068FFF7EAFF2068284467
:101050002060002070BD0000000002403800002029
:101060007370693300000000666C617368000000F3
:10107000501400207370692062757320617474616C
:10108000636820646576696365206661696C656480
:10109000210A000000127A00F8B50C4606464FF00F
:1010A000FF3501236A460521304600F097FB0028F2
:1010B0000CDB9DF80000C0070AD0012000F00DF9FC
:1010C000641EEED29DF80000C00701D02846F8BD8E
:1010D0000020F8BD2DE9FC5F83464FF480709046F8
:1010E000B1FBF0F5B1FBF0F2814600FB12100026D7
:1010F0009A4634462DE0A8EB0407A9EB00018F4285
:1011000000D30F4602218DF80410290A8DF805102E
:101110008DF806508DF807000AEB0403042201A99C
:101120005846009700F06AFB060001D570A00AE05F
:10113000012000F0D2F841F288315846FFF7ACFFA9
:10114000060003D572A005F0EDFA04E000203C444F
:101150006D1C4445CFD33046BDE8FC9F2DE9FC47CC
:1011600081464FF48066B1FBF6F00F4606FB107027
:1011700020B9B2FBF6F006FB102030B16EA005F0EE
:10118000D1FA4FF0FF30BDE8FC87B2FBF6F8D8206B
:1011900000258DF804002C462CE0B7FBF6F0204427
:1011A0008002C0F30741C0F307228DF80510002527
:1011B0008DF806208DF807502B466CA005F0B2FA8A
:1011C0000023042201A94846009500F017FB050002
:1011D00001D56DA00AE0012000F07FF841F28831CE
:1011E0004846FFF759FF050003D56FA005F09AFAAE
:1011F00002E0641C4445D0D32846C4E73EB59022A3
:101200008DF804200A0E8DF805200A0C8DF80620B2
:101210000A0A8DF8081000218DF807200B4600916E
:10122000052201A900F0EAFA040002D566A005F043
:1012300079FA20463EBD3EB591238DF804308DF8F5
:1012400005200A0E8DF806200A0C8DF807200A0AE0
:101250008DF808208DF8091000210B460091062218
:1012600001A900F0CBFA040002D55BA005F05AFA00
:1012700020463EBD1CB592238DF804308DF8052024
:101280008DF8061000210B460091032201A900F001
:10129000B5FA040002D555A005F044FA20461CBD5D
:1012A000F8B50746962015460E468DF80000002337
:1012B0001A469721384600F091FA040002D542A060
:1012C00005F030FA0A2000F008F82B46324669464D
:1012D000384602F03DF82046F8BD42F6E06303E0F0
:1012E0001946491E89B2FCD2401E80B2F8D270471E
:1012F0006D637520666C617368205061676520506E
:10130000726F6772616D206661696C65640A0000C6
:101310006D637520666C617368207061676520700D
:10132000726F6772616D6D696E672074696D656457
:10133000206F75740A0000004572617365206F6646
:10134000667365742F6C656E677468206E6F7420A9
:101350006D756C7469706C65206F6620736563745D
:101360006F722073697A650A00000000657261730C
:1013700065206164647220307825303278253032FF
:1013800078253032780A00006D637520666C6173D1
:1013900068207061676520657261736520666169A8
:1013A0006C65640A000000006D637520666C6173F3
:1013B0006820706167652065726173652074696D6E
:1013C0006564206F75740A00736574207667612008
:1013D0006661696C65640A00736574206672657184
:1013E000206661696C65640A000000007365742002
:1013F0006D6F6465206661696C65640A00000000B9
:10140000F8B505680C464FF0FF3601236A46052102
:10141000284600F0E3F900280CDB9DF80000C00727
:101420000AD0022006F08DFB641EEED29DF800006B
:10143000C00701D03046F8BD0020F8BDFEB5846974
:101440000B26A5888DF80460B1FBF5F4260A8DF80B
:1014500005608DF80640B1FBF5F405FB14118DF81D
:10146000071000218DF808100092052201A900F054
:10147000CBF9FEBD2DE9FC5F8046806992460024D1
:1014800080889B468146B1FBF0F2B1FBF9F600FB88
:101490001210254636E0AAEB0507A9EB00018F42A2
:1014A00000D30F4602218DF80410310A8DF8051083
:1014B0008DF806608DF8070000231A460621D8F83B
:1014C000000000F08BF9040001D55BA00BE0009751
:1014D0000BEB0503042201A9D8F8000000F08EF9F7
:1014E000040003D55BA005F01DF90DE04FF4FA618F
:1014F0004046FFF785FF040001D55FA0F3E7002019
:101500003D44761C5545C6D32046BDE8FC9F2DE9D9
:10151000FC470746806989468688C0884643B1FBF8
:10152000F6F106FB119020B9B2FBF6F006FB102095
:1015300030B15CA005F0F6F84FF0FF30BDE8FC8755
:10154000B2FBF6F84FF0000AD8208DF804008DF8B1
:1015500006A08DF807A05446554626E0B9FBF6F0E4
:1015600028448DF8050000231A460621386800F04B
:1015700035F9040001D530A00AE0CDF800A0002321
:10158000042201A9386800F039F9040003D553A0FA
:1015900005F0C8F80BE041F288313846FFF730FF1C
:1015A000040001D555A0F3E76D1C4545D6D308FBD3
:1015B00006F14A465AA005F0B5F82046BEE770B5D8
:1015C0000A46064632F8010F624B41BA508842BAC9
:1015D000002003EB001425888D4202D165889542D6
:1015E00002D0401C0328F4D303281CD01C2006F092
:1015F00088FF05001BD02E60AC61E068686056482B
:101600002861AFF2F50068615448E860A388E0887B
:10161000434320894343AB60A28851A0E16805F0B1
:1016200081F8284670BD5BA005F07CF802E063A05D
:1016300005F078F8002070BD53463A20456E61628F
:101640006C696E67205772697465206661696C65A4
:10165000640A000053463A205350414E53494F4EBE
:1016600020506167652050726F6772616D206661FE
:10167000696C65640A00000053463A205350414E9D
:1016800053494F4E20706167652070726F677261B9
:101690006D6D696E672074696D6564206F75740A7D
:1016A0000000000053463A204572617365206F6662
:1016B000667365742F6C656E677468206E6F742036
:1016C0006D756C7469706C65206F662073656374EA
:1016D0006F722073697A650A0000000053463A2051
:1016E0005350414E53494F4E2070616765206572DB
:1016F000617365206661696C65640A0053463A202F
:101700005350414E53494F4E2070616765206572BA
:101710006173652074696D6564206F75740A0000DB
:1017200053463A205350414E53494F4E3A20537539
:10173000636365737366756C6C792065726173653C
:1017400064202575206279746573204020307825E7
:10175000780A000044530108751400083D1400087D
:1017600053463A204465746563746564202573208C
:101770007769746820706167652073697A652025D0
:10178000752C20746F74616C2025752062797465E6
:10179000730A000053463A20556E737570706F726D
:1017A000746564205350414E53494F4E20494420A4
:1017B0002530347820253034780A000053463A200A
:1017C0004661696C656420746F20616C6C6F636145
:1017D0007465206D656D6F72790A00000FB581B078
:1017E00002A900931346012201F0FAFC05B000BDE6
:1017F00038B5049C009401F0F3FC38BD38B5049C66
:10180000009401F04AFD38BD38B50068049C00948E
:1018100001F0E6FC38BD7FB5054603F0F9F8002875
:1018200036D0044620A1284606F09BFE80B900234E
:101830001A46F0212046FFF7D1FF0A2242F6E06364
:1018400003E01946491E89B2FCD2521E92B2F8D268
:10185000052302AA9F212046FFF7C0FFB8B99DF8D3
:101860000C109DF80B00CDE900019DF80A309DF8A1
:1018700009209DF808100EA004F054FF9DF80810F0
:10188000012907D0202905D014A004F04BFF002027
:1018900004B070BD02A92046FFF791FE0028F6D0E3
:1018A000F6E706F030BE0000666C61736800000069
:1018B00053463A20476F74206964636F646520253E
:1018C000303278202530327820253032782025308B
:1018D000327820253032780A0000000053463A2042
:1018E000556E737570706F72746564206D616E757E
:1018F000666163747572657220253032580A000083
:101900000C4C45F6A52500262068A8420DD10AA05A
:1019100004F008FF0D4800F02BF8010005D0481C2A
:1019200003D00BA0266004F0FDFEC82006F009F9E4
:10193000EAE700002000002075706772616465208E
:1019400072756E202E2E2E0A00000000B4140020A6
:101950007472616E7366657220646F6E65212066B5
:10196000696C652073697A652069732025640A00B3
:101970002DE9F84F4FF00008DFF804B4C2464646A0
:1019800047460025A94664226946FE4800F06EFAE3
:1019900078B1012870D0002F00DD761C052E6CDD9B
:1019A0001820FFF71DF81820FFF71AF80020BDE8EF
:1019B000F88F00980026B0F1FF3F07D040B1F14CFE
:1019C000EAB26178914207D0152077E00620EBE774
:1019D0000620FFF705F877E02DB1EB490979E9B367
:1019E00001294BD05AE0E078C8B300205A46E41CE5
:1019F00002E01154401C641C217809B1FF28F8DD75
:101A000000270BF80070DE49E0A004F08BFEDC4AF2
:101A10000020103A01E01154401C14F8011F202945
:101A200001D01028F7DB1754D548103810F8011BE7
:101A30002029FBD04FF0000805E008EB880201EBFD
:101A4000420810F8011B30390929F6D94146D3A0C4
:101A500004F068FE0620FEF7C3FF01E006E001E0A7
:101A600043201CE00620FEF7BBFF31E0E11CFEF73F
:101A70009DFE98B1CEA006E016E01EE0E11CFFF747
:101A8000DCFA58B1D0A004F04DFE1820FEF7A8FFF4
:101A90001820FEF7A5FF4FF0FF3088E70620FEF77D
:101AA0009FFF01276D1C0BE01820FEF799FF1820FF
:101AB000FEF796FF6FF0020079E74320FEF790FFF4
:101AC000B9F1000F3FF45FAFBAF1000F3FF459AF27
:101AD00040466CE700207047FEB505460120002611
:101AE00028706E70FF20A870344603E02B19641C28
:101AF000D870A4B2085D08B1FF2CF7D92819C670B8
:101B000068461168FEF76AFD0021241DA0B26B46ED
:101B100004E0491C2A54401C89B280B25A5C002A55
:101B2000F7D102E02E54401C80B28328FAD3FEBDC8
:101B300070B54FF48066B34201D3344600E0802490
:101B4000A34200D323469DB2B44201D1022300E058
:101B500001230B704A70D2438A700322EB1C04E00D
:101B600010F8016B8E54521C92B29A42F8D3A542DF
:101B700008D81A2298B2E41C02E00A54401C80B231
:101B8000A042FAD370BD41F4807141F221024000BD
:101B90004900CB0500D5401CC30300D55040CB0302
:101BA000F5D580B2704730B504460020651803E0D3
:101BB00014F8011BFFF7E7FFAC42F9D30021FFF750
:101BC000E2FFBDE830400021DDE70022014402E0F1
:101BD00010F8013B1A448842FAD3D0B2704770B56E
:101BE0000D460646002404E0305DFEF7F9FE641C55
:101BF000A4B2AC42F8D370BD2DE9F74F0024ADF587
:101C0000A26D8046254620460DF581620B5C13547B
:101C1000401CC0B2FF28F9D34FF0010A0DF5A362B2
:101C20000DF581616846FFF757FF83216846FFF78E
:101C3000D6FFBAF1000F4FF080010DF1030007D07D
:101C4000FFF7B1FF0746000AFEF7CAFEF8B201E04F
:101C5000FFF7BBFFFEF7C4FE42F210710DF5A16065
:101C6000FEF7A0FE10B1641C65B103E09DF8080505
:101C70000628F9D10A2C07D247464FF00108DDF8B3
:101C8000185552E00A2CD0D3E9E008F0FF022B46A9
:101C900069463846FFF74CFF4FF0000B8DF808B54A
:101CA0005E464FF48064A54200D28024E11C684661
:101CB000FFF795FFBAF1000F21460DF1030008D0A0
:101CC000FFF771FF8146000AFEF78AFE09F0FF0068
:101CD00001E0FFF77AFFFEF783FE41490DF5A160B1
:101CE000FEF760FE18B99DF80805062804D0761C9A
:101CF000BBF1000F16D011E0A54227440DD92D1BD2
:101D0000B8F5617F04D008F101001FFA80F805E002
:101D1000FF200DF21C5DBDE8F08F00250A2E04D3D4
:101D2000F0B2F6E70A2EBCD3FAE7002DADD12F466C
:101D30008DF808552C4642F210760420FEF750FE2E
:101D400031460DF5A160FEF72DFE18B99DF8080586
:101D5000062801D0641C8DB10A2C63D201208DF8B5
:101D6000000000258DF80170FF208DF802008DF82D
:101D700008752C46032069460F5433E050E00000FC
:101D8000D91C0020C41800202000002066696C6562
:101D90006E616D653A2025730A00000066696C6506
:101DA0005F73697A652069732025640A000000006A
:101DB0006D6375312070726F6772616D2066616945
:101DC0006C6564200A000000667067612070726FA5
:101DD0006772616D206661696C6564200A000000AD
:101DE000A0860100401CC0B28328C5D38846832149
:101DF0006846FFF7F4FE802108F10300FFF7D3FEE9
:101E00000746000AFEF7ECFDF8B2FEF7E9FD3146A1
:101E10000DF5A160FEF7C6FD28B1641CA5B107E071
:101E20000A2C8AD31BE09DF808050628F6D1012567
:101E30000A2C14D20420FEF7D3FD31460DF5A16023
:101E4000FEF7B0FD18B106E00A2CD0D307E09DF8EC
:101E50000805062801D0641C1DB10A2C04D3E0B289
:101E600057E70A2CE6D3FAE7002052E72DE9F84FAE
:101E7000884600210546C8F800109246114668467B
:101E8000FEF790FD4FF0FF39C0BB9DF800101829F8
:101E900014D006DC012909D0022909D004292DD14A
:101EA00030E0412916D0612928D113E0802601E0D5
:101EB0004FF4806601242970771D17E0514668466B
:101EC000FEF770FDD0B99DF80000182816D1C8F8AB
:101ED000009017E00CA004F025FC012067E528190C
:101EE0005146FEF75FFD48B9641CA4B2BC42F6D36C
:101EF000A978687881F0FF01884201D0484656E50C
:101F0000C8F80060002052E541424F5254200A00B8
:101F100010B500214FF0006006F0E9FDBDE810406B
:101F20004FF4A06006F0AEBD1FB5684607F06CF92F
:101F300001984FF47A71B0FBF1F0C008401EB0F187
:101F4000807F0AD24FF0E02148614E4AF02082F8AB
:101F5000140D00208861072008616FF0040006F06E
:101F6000D7FD1FBD10B504F0FBF802F02FFDBDE852
:101F7000104004F000B91CB50121102007F0D9F978
:101F800001208DF8040000208DF806008DF8070070
:101F900002208DF8050080203B4C01460090204631
:101FA00007F029F86946204606F0C0FF8021204648
:101FB00007F023F8052005F0C4FD8021204607F036
:101FC0001AF81CBD1CB50121102007F0B2F9012040
:101FD0008DF8040000208DF806008DF8070002201F
:101FE0008DF805000320284C00900121204607F0C1
:101FF00002F80221204606F0FEFF6946204606F060
:1020000095FF0121204606F0F8FF052005F099FD17
:102010000121204606F0EFFF322005F092FD02215B
:10202000204606F0EAFF052005F08BFD0221204640
:1020300006F0E1FF1CBD7CB50121102007F079F905
:1020400000208DF804008DF806008DF807000220AE
:1020500044020D4D8DF8050069462846009406F0AF
:1020600065FF2146284606F0B2FF7CBD10B5FFF79C
:102070004FFFFFF759FF00F0B1FCBDE8104003A08F
:1020800004F09BBB0FE000E0001002407561727429
:102090003100000070B5FA49002008F048F80A2223
:1020A000F849F94808F0AAF90A22F849F84808F06E
:1020B0004AF9F74D002405EB4410012108F023FAFA
:1020C000641C0A2CF7DB07F0B1FF002070BD002074
:1020D00070470020704710B56FF0050004F068F8F5
:1020E000002010BD10B56FF0050004F061F800206D
:1020F00010BD10B51046012904D128B10622E049CF
:1021000004F091F8002010BD4FF0FF3010BD70B505
:10211000DB480C460025FA21083002F040FF06009B
:1021200004D0DCA004F0FEFA304670BDDC48006844
:10213000866807E062897019616804F074F8608944
:1021400024680544002CF5D1A8B208F0A8F810B90D
:10215000D4A004F0E7FACA48083002F08FFF00204C
:1021600070BD2DE9FE4300263746684608F053F857
:102170009DE8250088B32968090413D4904681B2EC
:10218000032210460CF04CFD07000BD0044608EB70
:1021900006016289606804F046F860892468064494
:1021A000002CF4D1C24A10688168012900D9056861
:1021B00000204FF0004102E02960ED68401C1368E8
:1021C0009B688342F8D8106800218160B948426951
:1021D000120602D58022426181603846BDE8FE8346
:1021E0007CB50121172007F0A4F80121880307F02E
:1021F000C8F8002007F033FB03208DF8050002200B
:102200008DF8040000208DF806008DF807003220BC
:10221000A94C00906946204606F088FE0B22012159
:10222000204606F0F7FE0B220421204606F0F2FEBF
:102230000B220521204606F0EDFE4FF460509F4D25
:1022400000906946284606F071FE0B22114628468A
:1022500006F0E0FE0B220C21284606F0DBFE0B22E6
:102260000D21284606F0D6FE8621954E009169463E
:10227000304606F05BFE0B220121304606F0CAFE16
:102280000B220221304606F0C5FE0B220721304604
:1022900006F0C0FE0C2100916946204606F046FE7D
:1022A0000B220221204606F0B5FE0B220321204618
:1022B00006F0B0FE40F2034000906946284606F062
:1022C00035FE0B220021284606F0A4FE0B22012138
:1022D000284606F09FFE0B220A21284606F09AFEA9
:1022E000092000906946304606F020FE0B220021AE
:1022F000304606F08FFE0B220321304606F08AFEA0
:102300000420704C00906946204606F00FFE0B2218
:102310000221204606F07EFE7CBD00B5AFB0012153
:102320004FF0606007F005F807F05CFC08F021F959
:1023300008F025F90128FBD0684607F05FFC002073
:102340004FF480410090019002900390CDE9040188
:10235000CA100690CDE907024A11CDE909020B9097
:102360000C900D9040220E90CDE90F021390149026
:102370008022CDE918021D901E90CA02CB01119057
:10238000CDE922031590169017901A901B901C907F
:102390001F90CDE9200224900423CDE92832259016
:1023A0008A002A9226900A022B9227904A102C9299
:1023B000CDE92D010521684607F0B2FC10B942A015
:1023C00004F0B0F94FF404520021052007F05AFC44
:1023D0000021052007F07CFC014643A004F0A2F98F
:1023E0000121454808F0DDF82FB000BD38B5FFF7F2
:1023F000F7FE3D208DF8000002208DF8010000243A
:102400008DF8024001208DF80300684606F03FFB7E
:10241000FFF783FF1A480E21A03880F8A04080F80B
:10242000A110C62180F8A210C32180F8A3101A21A0
:1024300080F8A410882180F8A510304940F83C1F8E
:102440002F4941602F4981602F49C1602F490161A7
:102450002F49C0E90514AFF2F521C165AFF2513142
:1024600001660748002301222AA1083002F01BFD63
:10247000BDE83840024829A1A03812F0ACBB0000EA
:102480007C1E0020086F0020403200208033002096
:102490000031002054782054696D656F75740A000E
:1024A0008C0200205478204572726F720A0000007E
:1024B0009402002000900240000802400004024004
:1024C000000002400010024045544820696E6974C3
:1024D000206572726F722C206D6179206265206EAA
:1024E0006F206C696E6B0A003078352042435220B1
:1024F0003A307825780A0000400001009520000855
:10250000CF200008D3200008D7200008E5200008CD
:10251000F320000874785F7761697400657468302F
:102520000000000010B5402008F030F801280AD162
:10253000402008F047F80A4812F04FFB010002D093
:1025400008A004F0EFF8012008F034F8012801D1C8
:1025500008F038F8BDE810404FF4803008F032B889
:10256000DC1D0020525820657272203D25640A004F
:102570007047FEE7FEE7FEE770477047F0B585B0AD
:102580000C46070004D1B322E549E6A004F067F940
:10259000B86D20B9B422E249E7A004F060F9607890
:1025A0000026BD6D082802D8ADF8046005E01028AB
:1025B00010D84FF40060ADF804003846616800F0B0
:1025C00004F9ADF80C002078800707D50220ADF89B
:1025D000060005E06FF0070005B0F0BDADF806603D
:1025E0002078C00703D00120ADF8080001E0ADF865
:1025F00008602078400702D5ADF80E6002E0802028
:10260000ADF80E00ADF800604FF48270ADF8020036
:102610004FF40070ADF80A000720ADF8100055F82F
:102620009C0F002107F028F86946286806F090FF03
:102630000021286807F088F80121286807F01CF8B5
:102640000020C9E72DE9F84F0C46050005D1B44933
:10265000F8222C39B3A004F002F9A86D28B9B049CA
:10266000F9222C39B4A004F0FAF8AE6D5D20D6F84A
:102670009C100091405DD5F85490D4F808804FF03C
:10268000FF35082805D0B2A004F04CF82846BDE874
:10269000F88F207CC00705D0B9F80410D9F80000E5
:1026A00006F0ABFCB8F1200F03D3D6F8E000012808
:1026B00007D0B8F1000F34D0D4E90065DFF8BCB220
:1026C0002CE094E80E00304600F0CFF8294606F1E1
:1026D000A80002F064FC24E04FF0FF0A0EB116F8E7
:1026E00001AB5F460221009807F059F810B97F1E30
:1026F000002FF7DC5146009807F024F85F460121CF
:10270000009807F04CF810B97F1E002FF7DC0098F6
:1027100007F016F8C0B20DB105F8010BB8F10108C9
:10272000DAD2207C800705D5B9F80410D9F800006A
:1027300006F061FCA068AAE77CB50121042006F040
:10274000F8FD0121C80306F012FE0121480506F03C
:10275000F0FD02208DF8040000248DF806400121D0
:102760008DF80710864D8DF8050006220A212846AF
:1027700006F050FC06220B21284606F04BFC0622F0
:102780000C21284606F046FC4FF4E05100916946C2
:10279000284606F0CBFB7C497C4A7A48E1E92702CF
:1027A0007A4A4C64A83A8A6006F09CFE7648012377
:1027B000002277A1A83002F076FB02B0764ABDE88D
:1027C000704076A1704800F0DABE70B50C46050086
:1027D00005D153492622273972A004F040F8A86D8C
:1027E000754AD0F89C1075489142006822D1B4EB2C
:1027F000900F04D37249884201D8082070BDB4EB11
:10280000D00F01D3102070BDB4EB101F01D31820DE
:1028100070BDB4EB501F01D3202070BDB4EB901FEE
:1028200001D3282070BDB4EBD01F01D3302070BD80
:10283000382070BDB4EBD00F04D36249884201D870
:10284000002070BDB4EB101FD7D2B4EB501FD9D20B
:10285000B4EB901FDBD2B4EBD01FDDD2B4EB102F62
:10286000DFD2B4EB502FE3D3E0E7F8B51D461746AF
:102870000E46040005D12A4983220D3952A003F0E7
:10288000EEFFD4F8A400456047B1D4F8A400C760B7
:10289000D4F8A400016841F4806108E0D4F8A410E1
:1028A000C1F80CD0D4F8A400016821F48061016063
:1028B000D4F8A000456046B1D4F8A000C660D4F8B2
:1028C000A000016841F4806109E03348D4F8A01009
:1028D000001FC860D4F8A000016821F48061016085
:1028E000D4F8A400012210219C3406F059FA0122E8
:1028F0001021606806F054FA01221146206806F0A3
:102900003AFF0121A06806F0D6F90121606806F0BF
:10291000D2F901220221206806F02DFFF8BD000047
:10292000A053010864657669636520213D205254F7
:102930005F4E554C4C0000006465766963652D3E22
:1029400062757320213D2052545F4E554C4C00005F
:10295000737069206472697665206E6F7420737578
:1029600070706F72742031366269742064617465AE
:10297000207769647468210A00000000FFFF0F00DF
:1029800000080240003C0040BC1E0020B86002402D
:1029900073656D30000000004400002073706933DF
:1029A0000000000064657669636520213D20525473
:1029B0005F4E554C4C000000003001405401002097
:1029C00003A24A04074495087370695F6275732017
:1029D000213D2052545F4E554C4C00002DE9F043F0
:1029E00087B00121022006F0A4FC0121102006F08E
:1029F000C8FC0121880506F09CFC0121082006F096
:102A000098FC0121480406F0B2FC0121480506F0BB
:102A100090FC02208DF8140000248DF8164001254A
:102A2000C0204A4E8DF8175004908DF8154004A927
:102A3000304606F07BFA07220621304606F0EAFA15
:102A400007221146304606F0E5FA6020404E049019
:102A500004A9304606F06AFA07220521304606F03E
:102A6000D9FA07220621304606F0D4FA25208DF83F
:102A700010008DF811408DF812408DF8135004A805
:102A800006F005F826208DF810008DF811408DF81D
:102A900012408DF8135004A805F0F9FF2D4F4FF4A4
:102AA000E135ADF80440ADF808400C260095ADF8CE
:102AB0000640ADF80C40ADF80A606946384606F0AD
:102AC0002AFF40F24318244B424624A1254800F037
:102AD000D1F940F2255901224946384607F02BF832
:102AE000ADF80440ADF80640ADF80840ADF80C4034
:102AF0001D4C0095ADF80A606946204606F00BFFB4
:102B0000154B18480C33424618A1583000F0B2F962
:102B100001224946204607F00EF807B0BDE8F083D1
:102B200010B503F01DFB0F4800F0D6F9BDE81040CA
:102B300003F021BB10B503F013FB0A48583000F036
:102B4000CBF9BDE8104003F016BB000000040240C2
:102B5000000C0240001001404C00002075617274AE
:102B600031000000A821002000440040756172740B
:102B70003200000070B516460D46040004D108224C
:102B8000FC49FDA003F06BFE0021204606F093F8FF
:102B9000E56066602046BDE87040012106F08BB814
:102BA00070B516460D46040005D1F24915221831BC
:102BB000F1A003F054FE0021204606F07CF8E56009
:102BC00066602046BDE87040012106F074B8F8B593
:102BD0000546446DC08DC10651D4C0054FF00006B6
:102BE0000BD54FF400720021606803F0FAFA6068B8
:102BF000C0F800626068C0F80462E88D000516D570
:102C0000A068006828B9DB4930223031E0A003F029
:102C100026FEA0684023E8A18660A06846601020D8
:102C20000090A06800F15C020C3004F0F9F9E88D26
:102C300080051CD56068006828B9CE493C22303137
:102C4000DEA003F00CFE60684FF480620021001DDE
:102C500003F0C7FA60684FF48072C0F804646068DB
:102C6000C0F808646068011D0068FFF783FF012158
:102C7000206806F0C1FEE88D40F01000E8850020D5
:102C8000F8BD00207047002070472DE9F05F456DCA
:102C9000C08D4FF000091E4617461446C1056FF05F
:102CA000030ACB4620D54FF40078EEB305F098FA2E
:102CB00002466868D0E98013994212D0405C04F85B
:102CC000010B6968761ED1F80002401CC1F80002B1
:102CD0006968404501D3C1F800B2104605F084FA96
:102CE000E3E7D14610462EE0800536D54FF48078D4
:102CF000434502D00020BDE8F09F05F071FA06467A
:102D0000686800F2044106C9914217D00144424666
:102D10002046091D12F017FA6968D1F8040400F57D
:102D20008070C1F8040400E01AE0696804F580745A
:102D3000B0F5007F06D3C1F804B403E0D1463046B5
:102D400005F052FA304605F04FFA09E0808804F8A1
:102D5000010B286801888906F8D4E01BB042F8D33B
:102D6000484603F025FAE01BC5E72DE9F047456D1D
:102D7000C08D1E4690464FF000091446410506D509
:102D80007C49C9223F3199A003F069FD4AE0010561
:102D900029D5A8684FF0FF310C3004F02AFA07005B
:102DA00013D000203C60C7E9016005F019FA06461F
:102DB000A8688068F860A868806800B18760A86823
:102DC0008760A868416819B109E06FF0040929E03B
:102DD0004760A868D7E900120068FFF7E1FE3046B7
:102DE00005F002FA1EE040061AD50D22D6B1207871
:102DF0000A2804D1286801880906FCD58280286841
:102E000001880906FCD514F8011B8180761EEDE7C8
:102E1000286801880906FCD514F8011B8180761EFC
:102E2000002EF5D1484603F0C3F9A4EB0800BDE835
:102E3000F08770B50D46040006D14E494FF49272EA
:102E40004F316BA003F00BFD606D012D08D0022DFA
:102E50000ED1E18D41F02001E1850068002105E0FF
:102E6000E18D21F02001E1850068012106F0C4FD1B
:102E7000002070BD2DE9F0411E4615460F460400A6
:102E800006D13C4940F23B1261315DA003F0E7FC02
:102E9000680506D5374940F23F12613153A003F06F
:102EA000DEFC002084F82C006063A0635948E063D6
:102EB00059482064594860645948A0645948E064FE
:102EC0005948C4E91406A8B240F003023946204626
:102ED000BDE8F04101F0C2BD2DE9F041446D054669
:102EE00040F22551206806F048FE002841D0E88DC8
:102EF0004FF40077C0054FF000062BD41D494FF466
:102F0000AC72773149A003F0AAFC23E005F068F920
:102F10000246206881886068D0F80432C154616834
:102F2000D1F80402401CC1F804026168B84201D320
:102F3000C1F804626068D0E980138B4207D1491C54
:102F4000C0F800126068B94201D3C0F800621046B0
:102F500005F04AF9206800888006D7D46A6B42B130
:102F60006168D1E98001884275D9C0F500700144DB
:102F700072E073E0AA530108646D615F6368616E7B
:102F80006E656C20213D2052545F4E554C4C000024
:102F9000756172742D3E646D615F74782D3E646D51
:102FA000615F6368616E6E656C20213D2052545FE5
:102FB0004E554C4C00000000646E00007561727448
:102FC0002D3E72785F6D6F64652E646D615F7278FF
:102FD0002D3E646D615F6368616E6E656C20213D9E
:102FE0002052545F4E554C4C000000003000000051
:102FF00064657620213D2052545F4E554C4C0000B4
:1030000064657669636520213D2052545F4E554CBE
:103010004C000000CF2B0008832C0008872C0008F0
:103020008B2C00086B2D0008332E00086465766930
:1030300063652D3E666C616720262052545F4445CF
:10304000564943455F464C41475F494E545F52588D
:1030500000000000FFE7091A284690470821206871
:1030600006F081FD002804D02068BDE8F04106F09C
:10307000EDBCBDE8F08170B50646446DC08D00051D
:1030800005D440F28F123B493BA003F0E8FBA06857
:1030900045682DB940F29312364941A003F0DFFB99
:1030A000B26B12B130462968904705F099F8A268D2
:1030B0000146A8685060A26808B9002090600846E0
:1030C00005F092F8284604F00FF9A068416821B194
:1030D00006C90068BDE8704062E50068BDE8704060
:1030E000002105F0E8BD2DE9F0410546446DC08D95
:1030F000800506D41F4940F2BB1218312EA003F000
:10310000AEFB05F06DF8616806464FF48063D1F8B8
:103110000804002200F58070C1F808046168984234
:1031200001D3C1F80824616801F2044081C88742D4
:1031300008D100F58070C1F804046168984201D399
:10314000C1F8042460684FF480742246D0F8081453
:1031500001440068091DFFF70DFD304605F044F8F5
:103160006B6B002B85D021462846BDE8F0411847FF
:103170007FE70000325401086465766963652D3E7F
:10318000666C616720262052545F4445564943458A
:103190005F464C41475F444D415F5458000000007A
:1031A000646174615F6E6F646520213D2052545FDD
:1031B0004E554C4C000000006465766963652D3EF9
:1031C000666C616720262052545F4445564943454A
:1031D0005F464C41475F444D415F5258000000003C
:1031E0002DE9F04385B01E46DDF8309090460F463D
:1031F000040004D11122F549F5A003F030FBA06DC5
:1032000020B91222F149F7A003F029FBA06D4FF07D
:10321000FF315C3001F0F8FF6FF00705C8BBA06D0F
:10322000D0F89810A14209D0806D04F15C010268C9
:103230002046904748BBA06DC0F8984000970027F3
:10324000CDE901780498694620F0020040F00100C1
:10325000CDE90370A06D806D42682046904700283C
:1032600013DB0498CDE9007620F00100CDF808903A
:1032700040F00200CDE90370A06D6946806D4268A0
:1032800020469047002800DB0025A06D5C3002F04E
:103290008BF8284605B0BDE8F0832DE9F04385B0F2
:1032A0001E46DDF8309090460F46040005D1C74910
:1032B00062221631C6A003F0D2FAA06D28B9C34924
:1032C00063221631C7A003F0CAFAA06D4FF0FF3198
:1032D0005C3001F099FF6FF00705B8BBA06DD0F826
:1032E0009810A14209D0806D04F15C01026820466B
:1032F000904738BBA06DC0F8984000970027CDE9F3
:1033000001780498694620F0020040F00100CDE900
:103310000370A06D806D426820469047002811DB45
:103320008DE8C0020498694620F0010040F00200D8
:10333000CDE90370A06D806D42682046904700285B
:1033400000DB0025A06D5C3002F02EF82846A1E7D6
:103350002DE9F04186B01D4616460F46040005D102
:103360009A49B0222C319AA003F079FAA06D28B9BD
:103370009649B1222C319BA003F071FAA06D4FF059
:10338000FF315C3001F040FF6FF0070830B140467C
:1033900002F00EFF002006B0BDE8F081A06DD0F86D
:1033A0009810A1420ED0806D04F15C0102682046A5
:1033B000904720B1404602F0FBFE002516E0A06DCC
:1033C000C0F898400097CDE901650498694640F03F
:1033D0000300049000200390A06D806D4268204699
:1033E0009047050002D5404602F0E2FEA06D5C3039
:1033F00001F0DAFF2846CEE770B50D46040005D18E
:103400007249E9223C3172A003F029FA687884F805
:103410005D00287800F0070084F85C00686820668A
:10342000A06DB0B14FF0FF315C3001F0EDFE060051
:103430000FD1A06DD0F89810A14206D1806D04F193
:103440005C010268204690470646A06D5C3001F0A2
:10345000ABFF304670BD0020704770B51D46164664
:10346000040006D1594940F20D124D3158A003F025
:10347000F6F9A06D30B955494FF487724D3159A016
:1034800003F0EDF92B46324600212046FFF760FF9E
:10349000002800DA002070BD70B51E4615460400F5
:1034A00006D14A4940F21B125D3149A003F0D7F919
:1034B000A06D30B945494FF48E725D3149A003F0DB
:1034C000CEF93346002229462046FFF741FF002867
:1034D00000DA002070BD70B516460D46040006D116
:1034E0003A494FF494726E3139A003F0B8F90020D4
:1034F000002D04D131462046BDE870407CE770BD08
:1035000070B50D46040006D130494FF49D728131EB
:103510003AA003F0A4F90C2184F82C103B49E16394
:103520000021216461643A49A1643A49E1643A495D
:10353000216520462946BDE87040032201F08EBA7D
:1035400070B504461D460E46104601F061FA18B1EA
:1035500090F82C100B2902D04FF0FF3070BDA06501
:1035600031462046FFF7CCFF0028F7D10822002182
:1035700004F15C0002F035FE0020656570BD2DE9A8
:10358000F04115460E46070006D110494FF4B472BB
:10359000983116A003F063F90B2187F82C10002452
:1035A000FC633C647C64BC64FC64384603223146A2
:1035B0003C6501F053FA0022314607F15C0001F04E
:1035C0009AFDBD650020C7F89840E5E66254010801
:1035D00064657669636520213D2052545F4E554CE9
:1035E0004C0000006465766963652D3E627573204A
:1035F000213D2052545F4E554C4C000064657620AE
:10360000213D2052545F4E554C4C00005734000869
:103610005B34000899340008D734000810B5FCA0CA
:1036200003F080F8002010BD10B503F09BF80020D7
:1036300010BD7CB50646FB4803F074F8FA4803F069
:1036400071F8356831E0A5F1240495F82930224657
:103650002021F6A003F066F894F84C00012805D06C
:10366000022805D030B1042806D008E0F3A004E019
:10367000F5A002E0F7A000E0F9A003F053F8206CF9
:10368000014600E0491C0A78232AFBD0A36C226E75
:10369000CDE90023B4F84420091A531A616B401A8B
:1036A0008118F2A003F03EF82D68B542CBD100207E
:1036B0007CBDF748BDE7F648103000F0D4B8F448B8
:1036C000303000F002B9F248203000F02CB9F04858
:1036D000403000F049B9EE48503000F07DB9EC4878
:1036E000603000F035BBEA48803000F05BBBE84852
:1036F000703000F07FBB70B5E6A003F013F8EA4825
:10370000EA4D04680BE00222E9A1206804F035FFCD
:1037100020B1D4E90012E7A003F004F80C342868C3
:103720008442F0D3002070BD30B5002422460C60E6
:10373000835CA3F13005092D06D80B681B010B60D3
:10374000855C2B44303B13E0A3F14105052D06D8E1
:103750000B681B010B60855C2B44373B08E0613B29
:10376000052B07D80B681B010B60855C2B44573B6E
:103770000B6000E00124521C082A01D2002CD7D093
:10378000002030BDF8B5022828D148686946FFF707
:10379000CBFFCCA0009902F0C5FF0098012180B2B8
:1037A00006F096FA06460098002180B206F090FADC
:1037B00005460098032180B206F08AFA0446009874
:1037C000022180B206F084FA44EA0041C2A002F06D
:1037D000A9FF32462946C4A002F0A4FFF8BD38B5BF
:1037E00002281ED148686946FFF79EFFB5A00099E0
:1037F00002F098FF00984FF4045280B2002106F0C6
:1038000041FA0098012180B206F062FA044600985D
:10381000002180B206F05CFA01462246B2A002F016
:1038200081FF38BD10B511F0D2FA002010BD10B5DF
:10383000B7A002F077FF4FF421440021224608464A
:1038400006F020FA22460021022006F01BFA22464A
:103850000021062006F016FA22460021072006F075
:1038600011FA002010BDF8B50646ADA002F05AFFCF
:10387000B3A002F057FF346813E004F10800A4F18C
:103880002405074600F0DCFA002838460DD000F089
:10389000DEFA0090AB8E2A462021B1A002F042FF52
:1038A0002468B442E9D10020F8BD00F0D0FA0090BD
:1038B000AB8E2A462021AFA002F034FF384600F03C
:1038C000CFFA9EA002F02EFFEAE7F8B50646AEA0BA
:1038D00002F028FFB5A002F025FF34680EE004F1E5
:1038E0000800A4F12405074600F0AAFA50B12A46C0
:1038F0002021B7A06B6B02F015FF2468B442EED113
:103900000020F8BD384600F0A2FA00902A46202197
:10391000B4A06B6B02F006FF384600F0A1FA87A056
:1039200002F000FFE9E7FEB50646B4A002F0FAFE99
:10393000BCA002F0F7FE356812E0A5F1240405F101
:10394000080000F084FA94F83710A26BCDE900214A
:103950002023029022461946BCA002F0E3FE2D6807
:10396000B542EAD10020FEBD2DE9FC410646BDA0CE
:1039700002F0D8FEC4A002F0D5FE356815E005F1CE
:103980000800A5F12404074600F05AFA002838463A
:1039900010D000F05CFA218FCDE90010638F224631
:1039A0002021C2A002F0BEFE2D68B542E7D1002062
:1039B000BDE8FC8100F04BFA218FCDE90010638F48
:1039C00022462021BFA002F0ADFE384600F048FAA2
:1039D0005AA002F0A7FEE7E7F8B50646BFA002F03E
:1039E000A1FEC6A002F09EFE34689BE104F108002F
:1039F000A4F12405074600F023FA0028384606D033
:103A000000F025FA0090AB8F2A46202186E18EE156
:103A100048656C6C6F2052542D5468726561642146
:103A20000A000000685E0108205E0108252D382E7E
:103A30002A732030782530327800000020726561CA
:103A400064792020000000002073757370656E6437
:103A50000000000020696E69742020200000000032
:103A600020636C6F736520200000000020307825F3
:103A70003038782030782530387820307825303844
:103A8000782030782530387820253033640A0000DB
:103A9000A80000202D2D46756E6374696F6E204C52
:103AA0006973743A0A000000680000206C0000206E
:103AB0005F5F0000252D313673202D2D2025730AE0
:103AC0000000000052656164205048592061646420
:103AD0007220307825780A00504859204944203A0D
:103AE00020307825780A0000424352203D2030786B
:103AF000255809425352203D203078255809504816
:103B0000595F4352203D20307825580A00000000BC
:103B1000726573657420737769637468200A0000A6
:103B200073656D6170686F726520762020207375F3
:103B30007370656E64207468726561640A000000C9
:103B40002D2D2D2D2D2D2D2D20202D2D2D202D2DCC
:103B50002D2D2D2D2D2D2D2D2D2D2D2D0A0000003F
:103B6000252D382E2A732020253033642025640A21
:103B700000000000252D382E2A73202025303364C4
:103B80002025643A000000006576656E74202020D0
:103B900020736574202020202020202073757370EE
:103BA000656E64207468726561640A002D2D2D2D88
:103BB0002D2D2D2D202D2D2D2D2D2D2D2D2D2D204F
:103BC0002D2D2D2D2D2D2D2D2D2D2D2D2D2D0A0075
:103BD000252D382E2A732020307825303878203053
:103BE0000A000000252D382E2A7320203078253039
:103BF000387820253033643A000000006D75746514
:103C000078202020206F776E657220202020686F3A
:103C10006C642073757370656E642074687265617E
:103C2000640A00002D2D2D2D2D2D2D2D202D2D2D17
:103C30002D2D2D2D2D202D2D2D2D202D2D2D2D2DCE
:103C40002D2D2D2D2D2D2D2D2D0A0000252D382E1D
:103C50002A7320252D382E2A732025303464202500
:103C6000640A00006D61696C626F782020656E7473
:103C700072792073697A652073757370656E64203C
:103C80007468726561640A002D2D2D2D2D2D2D2D4A
:103C9000202D2D2D2D20202D2D2D2D202D2D2D2D88
:103CA0002D2D2D2D2D2D2D2D2D2D0A00252D382E90
:103CB0002A73202530346420202530346420256484
:103CC0000A000000252D382E2A7320253034642068
:103CD00020253034642025643A0000006D7367713C
:103CE0007565756520656E7472792073757370657E
:103CF0006E64207468726561640A00002D2D2D2D9C
:103D00002D2D2D2D202D2D2D2D20202D2D2D2D2D0A
:103D10002D2D2D2D2D2D2D2D2D0A00005AA002F018
:103D200001FD2468B4427FF461AE0020F8BD00F0CC
:103D30008EF80090AB8F2A46202158A002F0F2FCAA
:103D4000384600F08DF8AFF20C2002F0EBFCE8E70B
:103D5000FEB5064656A002F0E5FC60A002F0E2FCCB
:103D600035681BE0A5F12404A86AD4E90F1200917C
:103D7000CDE901202B6922464FF0200150B162A00D
:103D800002F0D0FC04F1440000F06AF852A002F006
:103D9000C9FC02E063A002F0C5FC2D68B542E1D188
:103DA0000020FEBDF8B5064665A002F0BBFC6EA083
:103DB00002F0B8FC346813E0E0690090A4F1240537
:103DC0002A46202173A0A36902F0ACFC95F82100DB
:103DD000C00701D075A000E077A002F0A3FC246822
:103DE000B442E9D100F0E5FD014677A002F09AFC6B
:103DF0000020F8BD70B596B005465022784901A85C
:103E000011F0E6F977A002F08DFC81A002F08AFCA7
:103E100001AE2C680FE0A07B0090207AA4F1240270
:103E2000132802D856F8203000E0149B202183A0EC
:103E300002F078FC2468AC42EDD116B0002070BDD1
:103E40000168814201D1012070470020704702467D
:103E50000020114600E0401C09689142FBD17047E8
:103E600070B5054604680BE0A4F12C0178A002F0BF
:103E700059FC2068A84202D076A002F053FC2468C6
:103E8000AC42F1D170BD0000252D382E2A732025BB
:103E9000303464202025640A00000000252D382ECF
:103EA0002A732025303464202025643A0000000065
:103EB0006D656D706F6F6C2020626C6F636B20742A
:103EC0006F74616C20667265652073757370656EC2
:103ED00064207468726561640A0000002D2D2D2D28
:103EE0002D2D2D2D202D2D2D2D20202D2D2D2D2036
:103EF000202D2D2D2D202D2D2D2D2D2D2D2D2D2D0C
:103F00002D2D2D2D0A000000252D382E2A73202559
:103F1000303464202025303464202025303464205F
:103F200025643A00252D382E2A732025303464204C
:103F300020253034642020253034642025640A0094
:103F400074696D657220202020706572696F6469E4
:103F50006320202074696D656F75742020202066B1
:103F60006C61670A000000002D2D2D2D2D2D2D2DAB
:103F7000202D2D2D2D2D2D2D2D2D2D202D2D2D2D8B
:103F80002D2D2D2D2D2D202D2D2D2D2D2D2D2D2D6E
:103F90002D2D0A00252D382E2A7320307825303813
:103FA000782030782530387820000000616374690B
:103FB00076617465640A00006465616374697661A2
:103FC0007465640A0000000063757272656E742087
:103FD0007469636B3A3078253038780A0000000045
:103FE0001055010864657669636520202074797036
:103FF000652020202020202020202020202020207C
:10400000202072656620636F756E740A00000000E0
:104010002D2D2D2D2D2D2D2D202D2D2D2D2D2D2DDD
:104020002D2D2D2D2D2D2D2D2D2D2D2D2D202D2DCD
:104030002D2D2D2D2D2D2D2D0A000000252D382E56
:104040002A7320252D32307320252D38640A000074
:10405000257300002F0000000120704770B592A06A
:1040600002F060FB9748984D04680CE0062297A187
:10407000206804F082FA28B9D4E9001295A0891DBD
:1040800002F050FB0C3428688442EFD394A002F075
:1040900049FB002070BD38B5054601E0491E6D1C86
:1040A00028782028FAD00928F8D031B16A46284665
:1040B00000F061F818B12C4604E0002038BD0098EB
:1040C00038BD641C2078202801D00028F9D10020B8
:1040D0002070294683A002F025FB4FF0FF3038BD49
:1040E0002DE9F0478146002500782E4620B175481D
:1040F000DFF8D48104682FE0BDE8F04700210846CE
:10410000ACE7062271A1206804F037FA18BB2768D3
:104110004846BF1D10F0F8FF02463946484604F0F5
:104120002CFAC0B925B93E46384610F0EDFF0546D9
:104130003946304601E0401C491C03781BB10A781F
:104140000AB19342F7D0801BA84200DA05463946EF
:1041500062A002F0E7FA0C34D8F800008442D0D311
:10416000002E06D02A4631464846BDE8F04702F008
:10417000DCB8BDE8F0872DE9F04F8BB091468A4658
:1041800005004FF0000605D140F213125B495CA018
:1041900002F065FBB9F1000F07D14FF48A7257495D
:1041A00058A002F05CFB00E0761CA85D202803D03C
:1041B000092801D05645F7D37EB34248B0460027C0
:1041C000B61DDFF804B1046810E006224FA1206894
:1041D00004F0D3F948B9206842462946801D04F00E
:1041E000CCF910B92068805DC0B10C34DBF8000058
:1041F0008442EAD38FB12821684611F03DF86A461F
:104200005146284600F00FF838B16946B847C9F85A
:10421000000000200BB0BDE8F08F01E0A768E9E7DF
:104220004FF0FF30F6E770B500231C461E4637E01E
:1042300000F8016B5B1C0578202D01D0092D01D100
:104240008B42F5D38B422DD2EDB2222D03D042F812
:104250002400641C1BE0401C42F824005B1C641C0E
:1042600008E05C2D04D14578222D01D1401C5B1C57
:10427000401C5B1C0578222D01D08B42F1D38B4270
:1042800010D200F8016B5B1C0AE0401C5B1C057837
:10429000202D03D0092D01D08B42F6D38B4201D2C1
:1042A0008B42C8D3204670BD52542D54687265614C
:1042B00064207368656C6C20636F6D6D616E6473F0
:1042C0003A0A0000680000206C0000205F5F636D08
:1042D000645F0000252D313673202D2025730A00E0
:1042E0000A00000025733A20636F6D6D616E6420D3
:1042F0006E6F7420666F756E642E0A00605501083B
:10430000636D640072657470000000005F5F636D30
:10431000645F000010B5FFF79FFE08B1F3A100E055
:10432000F4A1F64804F0F6F8F5A1F44804F035F9E4
:10433000F24810BD10B5F34C206820B95622F2495E
:10434000F2A002F08CFA206800F098FE002010BD68
:1043500070B5EC4D0646286828B9EB4969220D3145
:10436000EAA002F07CFA304600F052FB04002BD0A9
:104370002868D0F82002A0422CD040F243112046F9
:1043800000F0B5FB002825D12868D0F8200238B10C
:1043900000F0F3FB28680021D0F8200200F074FC44
:1043A0002868502100F5E77010F044FF28680021CC
:1043B00080F81E1280F81F12C0F820422046BDE887
:1043C0007040D74900F060BC3146BDE87040D5A0D0
:1043D00002F0A8B970BD10B5CA4C206828B9CA4906
:1043E00090221E31C9A002F03AFA2068D0F82002CB
:1043F00010BD70B5C34D0446296829B9C2499F2232
:104400002F31C2A002F02BFA286880F8394070BD25
:1044100010B5BC4C206828B9BB49AC223E31BBA0CA
:1044200002F01DFA206890F8390000F0010010BD7C
:104430001CB5B44E0127306880F83970FFF76AFF69
:1044400002F070F93068D0F82002C8B902F0B2F971
:104450003168C1F8200230B9AB4940F23B124D310E
:10446000B8A002F0FCF93068AD49D0F8200200F0A5
:104470000BFC306840F24311D0F8200200F037FB0B
:104480004FF0FF394FF00D0800254946306800F025
:1044900086FD0028F9D1C7E19DF8001030681B297E
:1044A00006D090F83820012A05D0022A0CD015E059
:1044B00080F83870B8E15B2902D080F838500DE000
:1044C000022180F83810AFE180F8385041290ED031
:1044D000422913D0442936D0432940D00D2951D048
:1044E00009297DD07F297CD00829FCD05AE0418F52
:1044F0000029D0D0491E89B241870CE0818F428FBC
:104500000B46491E8A4202DA521C428702E0002B07
:10451000C1D04187418F502201EB810100EB011195
:1045200000F5E7703E3110F00EFE306800F5E770E0
:1045300010F0EAFD0146306880F81E1280F81F1264
:1045400000F0BAF970E190F81F020028A3D081A012
:1045500002F0E8F8306890F81F12491E0FE090F85A
:104560001F1290F81E22914295D200F5E770095C67
:1045700079A002F0D7F8306890F81F12491C80F833
:104580001F1251E1D0F82002012301AA002100F0FE
:1045900019FB01283DD19DF80400C8B38DF8000037
:1045A0000D2838D09DF800200A2A34D0306890F8C1
:1045B0001E12502901D380F81E5290F81F3290F835
:1045C0001E128B427ED2CA1A00F5E77100F2CF109C
:1045D0001944184401F04CFE9DF80010306801E0C9
:1045E00021E04AE090F81F2200F5E770115430688E
:1045F00090F83910C90707D090F81F1200F5E7703E
:10460000014456A002F08EF8306890F81F42E3E0B3
:10461000FFE78DF80080306800F05EF9FFF71CFDC1
:10462000012862D0C2E0002403E04AA002F07AF838
:10463000641C306890F81F02A042F6DC346848A081
:1046400004F5E77402F06EF8FFF706FD012802D1C9
:104650002046FFF745FDFFF75DFE0146224641A0DB
:1046600002F060F8306800F5E77010F04DFD316839
:1046700081F81E0281F81F02D6E090F81F22002A5E
:1046800078D090F81E12521E491EC9B2D3B280F8DB
:104690001E1280F81F3299426ED9CA1A00F2CF1149
:1046A00000F5E7701944184401F0E2FD306890F815
:1046B0001E1200F5E7700D54306890F81F1200F5D7
:1046C000E77000E08EE0014428A002F02BF830688B
:1046D00090F81F4203E01FA002F024F8641C306829
:1046E00090F81E02A04245DBF5E74FE06D736820AD
:1046F0000000000066696E736820000060240020DE
:104700003E000000640000206E5501087368656C6F
:104710006C20213D2052545F4E554C4C000000004F
:104720003543000866696E73683A2063616E206ED7
:104730006F742066696E64206465766963653A20EB
:1047400025730A007368656C6C2D3E646576696339
:1047500065000000080000002563000025730000CC
:104760000A0000002573257300000000082573204F
:104770002008000058E0FFE778A001F0D3FF306880
:1047800090F81E1200F5E7700D544DE0306890F877
:104790003900C00703D0AFF2380001F0C3FF306822
:1047A00090F81E1200F5E770FFF775FCFFF7B2FDF9
:1047B00001F0B8FF30685021344600F5E77010F082
:1047C00039FD206880F81E5280F81F525DE6AFF276
:1047D0007C0001F0A7FF641C306890F81E02A04224
:1047E000F5DC0DE000F5E7700A54306890F8390008
:1047F000C00705D09DF80010AFF2A40001F092FFB1
:104800008DF80050306890F81E12491CC9B280F82B
:104810001E1290F81F22521C80F81F22502903D329
:1048200080F81E5280F81F52306801236A46D0F883
:104830002002002100F0C6F90128C7D12CE6484A21
:104840001060484801607047474A1060474801605F
:1048500070477FB546494748FFF7F1FF4FF40975A8
:10486000284602F01AF9444C2060C0B1294610F0E5
:1048700003FD00231A4641A1206800F014FB4148C3
:104880000A2314224FF400618DE80F000023AFF2D9
:104890005F423DA1B43803F000F838B10AE03CA013
:1048A00001F040FF4FF0FF3004B070BD3548B43820
:1048B00003F044F80020F7E710B504463AA001F0F1
:1048C00031FFFFF727FD014604F5E772AFF26C10E8
:1048D00001F028FF002010BD70B5044690F81E02BC
:1048E000C8B3A08F04F5E77605281ED3002505EB95
:1048F000850004EB001000F18E0150223E3010F0D4
:1049000022FC6D1C042DF2DB05EB850004EB00108E
:104910003E300546502110F08DFC94F81E222846AA
:10492000314610F010FC052014E000EB800004EB91
:10493000001050213E3010F07DFCA08F94F81E2214
:1049400000EB800004EB001031463E3010F0FBFB22
:10495000A08F401CA087A08F608770BD0820080032
:10496000680000206C00002070000020740000200F
:1049700040670108F06501086400002073687278E0
:104980000000000098250020747368656C6C0000BE
:104990006E6F206D656D6F727920666F722073681F
:1049A000656C6C0A000000001B5B324B0D000000C0
:1049B000704716480068704710B5044603F010FCB5
:1049C00012490C60BDE8104003F00EBC0F4810B552
:1049D0000168491C016002F08AFF016E491E0166F0
:1049E00003D1C16D016603F03AF8BDE8104003F051
:1049F00078BA00EB4001C1EBC01040F2E73101EBA7
:104A0000C000491CB0FBF1F07047000078000020A6
:104A10002DE9F041074602F06AFF08B102F079FE85
:104A2000A74E56F8744F08E0A4F124052022394619
:104A3000284601F08DFC50B12468B442F4D102F054
:104A400056FF08B102F070FE0020BDE8F08102F0D0
:104A50004EFF08B102F068FE2846F6E72DE9F04166
:104A6000164604000F464FF0FF3503D00846FFF707
:104A7000CFFF08B12846E8E73A460721204602F072
:104A80008CFCE685002084F832002086DDE710B536
:104A9000040004D148228B498BA001F0E0FE20469F
:104AA00002F097FC002010BD0020704770B5040094
:104AB0004FF0000505D183499522153182A001F000
:104AC000CEFEE16B89B194F82E00C0060DD42046CD
:104AD0008847050005D0024621467FA001F022FE4E
:104AE00003E0E08D40F01000E085284670BD70B511
:104AF0000E4604004FF0000505D17249B82224315A
:104B000071A001F0ACFE94F82E00C0060FD4E16B4A
:104B100049B120468847050005D0024621466EA0CF
:104B200001F000FE27E0E08D40F01000E08594F8F1
:104B30002E00000706D594F83000000702D56FF06C
:104B4000060070BD226C32B1314620469047050008
:104B500001D0A81D0FD146F0080024F8300FA0782E
:104B6000401C10F0FF00A07005D15649E12224310D
:104B700067A001F074FE284670BD70B504004FF0C8
:104B8000000505D14F49F32233314FA001F067FEF4
:104B900094F8320038B1401E10F0FF0084F8320063
:104BA00004D0002070BD4FF0FF3070BD616C29B1A2
:104BB00020468847050001D0A81D01D1002020868D
:104BC000284670BD2DE9F0411D4616460F460400EB
:104BD00006D13C494FF48E7243313BA001F03FFEB9
:104BE00094F8320058B1D4F848C0BCF1000F09D095
:104BF0002B46324639462046BDE8F04160474FF02B
:104C0000FF3001E06FF0050001F0D2FA00201CE750
:104C10002DE9F0411D4616460F46040006D12949EC
:104C20004FF4A172523128A001F019FE94F832001D
:104C300058B1D4F84CC0BCF1000F09D02B46324615
:104C400039462046BDE8F04160474FF0FF3001E0B3
:104C50006FF0050001F0ACFA0020F6E670B51546DD
:104C60000E46040006D117494FF4B172623116A006
:104C700001F0F5FD236D2BB12A4631462046BDE8F3
:104C800070401847002070BD70B50D46040006D175
:104C90000C4940F27B1274310BA001F0E0FD0020C2
:104CA000656370BD70B50D46040006D105494FF42B
:104CB000C8728E3104A001F0D2FD0020A56370BD42
:104CC000A4000020CE55010864657620213D2052C5
:104CD000545F4E554C4C0000546F20696E697469E6
:104CE000616C697A65206465766963653A2573202D
:104CF0006661696C65642E20546865206572726F08
:104D00007220636F64652069732025640A000000C7
:104D10006465762D3E7265665F636F756E742021E3
:104D20003D20300070B535E003F05AFA044601F03A
:104D30002DFA40B12C492DA001F0F4FC5E222A4945
:104D400033A001F08CFD204603F04EFA03F048FA40
:104D5000054600F040F810B32E480168A1F12C047C
:104D6000D1E900024260D1E90002106049600960A7
:104D7000C96F09B120468847204602F09DFB0128F3
:104D80000DD0284603F030FA206C01F038FF2046A1
:104D900002F06EFB00F01FF80028C5D170BD284658
:104DA000BDE8704003F020BAFFF7BCFFFCE71FB579
:104DB000202319481F22D9008DE80F000023174A2D
:104DC00017A1B03802F069FD04B01348BDE81040E7
:104DD000B03802F0B3BD0F480168814201D0012014
:104DE00070470020704700007656010846756E63D4
:104DF00074696F6E5B25735D207368616C6C206EE7
:104E00006F74207573656420696E204953520A00DF
:104E10003000000040010020482E0020A94D00086D
:104E20007469646C650000002DE9F0410546144684
:104E30000E46084602F03CFE06F12C07ACB1012CF0
:104E400017D12C680DE096F84D1094F82120A4F1AC
:104E50002C00914204D239462C3001F069F902E06D
:104E60002468AC42EFD1AC4203D13946284601F068
:104E70005FF90020BDE8F08170B505464FF0FF36C0
:104E80000AE003F0ADF904462868C6612C3802F048
:104E900031FD204603F0A8F9284601F050F900281A
:104EA000EFD0002070BD2DE9F0411E4615460F469B
:104EB000040004D1D822F749F7A001F0D0FC3A460B
:104EC0000121204602F069FA04F12C002063E0621F
:104ED000A58684F821600020CCE710B5040005D138
:104EE000EC49F5220C31ECA001F0B9FC04F12C00E6
:104EF000FFF7C2FF204602F06CFA002010BD2DE93A
:104F0000F04115460C46064603F06AF9074601F0E3
:104F10003DF958B1DF49E4A01A3101F003FCDD4945
:104F200040F211121A31E9A001F099FC384603F061
:104F30005BF93146012002F060FA00289AD000F1B6
:104F40002C010163C162848680F8215092E770B51C
:104F5000044603F045F9054601F018F958B1CD496A
:104F6000D1A0283101F0DEFBCA494FF498722831F4
:104F7000D6A001F074FC284603F036F934B9C549CF
:104F80004FF499722831C4A001F069FC04F12C009F
:104F9000FFF772FF204602F06BFA002070BD2DE98A
:104FA000F341040006D1BB4940F24D123631BAA09C
:104FB00001F055FC03F014F90646A08E28B1401EFE
:104FC000A086304603F010F954E0019840B103F098
:104FD00007F9804602F08BFC40F26D1538B111E004
:104FE000304603F001F96FF00100BDE8FC81A949EA
:104FF000B7A0363101F096FBA6492A463631B3A058
:1050000001F02DFC03F0ECF8074601F0BFF850B1B9
:10501000A049A5A0363101F085FB9E492A463631CC
:10502000AAA001F01CFC384603F0DEF8404603F06D
:10503000DBF802F05CFC05460020A86494F821200F
:10504000294604F12C00FFF7EFFE0198002809DD46
:1050500005F1640001AA0021044602F01CFF20466D
:1050600002F097FE304603F0BFF802F0DDFAA86CBC
:105070000028BAD10020B8E7002190E72DE9F041DF
:105080000446002503F0ACF8064604F12C00074660
:1050900001F055F850B1A08E401CA086304603F0B8
:1050A000A3F80DB102F0C0FA0020E3E6384601F0A3
:1050B0004DF80125F2E770B515460E46040006D1FD
:1050C00074494FF4F272423173A001F0C8FB012E13
:1050D00002D04FF0FF3070BD03F082F8064604F1B5
:1050E0002C00FFF7C9FEA586304603F07DF802F0DC
:1050F0009BFA002070BD70B515460E46040006D11F
:10510000644940F20F2251317FA001F0A8FB3246E2
:105110000221204602F041F904F12C002063E062F4
:10512000012024F8340F0020FF216060A170E0709E
:1051300004F8135C70BD10B5040006D1554940F267
:105140002E225F3170A001F08AFB04F12C00FFF7E2
:1051500093FE204602F03DF9002010BD70B50C46CC
:10516000054603F03DF8064601F010F858B14949EC
:105170004DA06F3101F0D6FA464940F249226F3115
:1051800052A001F06CFB304603F02EF829460220B5
:1051900002F033F900280ED000F12C010163C16246
:1051A000012181860021FF22816380F8362080F86A
:1051B000371080F8214070BD70B5044603F010F838
:1051C000054600F0E3FF58B1324937A07F3101F0C6
:1051D000A9FA304940F26A227F313CA001F03FFB3E
:1051E000284603F001F834B92A494FF41B727F3185
:1051F00045A001F034FB04F12C00FFF73DFE2046F2
:1052000002F036F9002070BD2DE9F341044602F0AA
:10521000E7FF064602F06BFB4FF4227550B91D49BB
:105220002BA08F3101F07EFA1A492A468F3127A030
:1052300001F015FB02F0D4FF074600F0A7FF50B1C4
:10524000144919A08F3101F06DFA12492A468F31A5
:105250001EA001F004FB384602F0C6FF304602F003
:10526000C3FF34B90B4940F28A228F3126A001F0E6
:10527000F6FA02F0B5FF064602F039FB05460020BB
:10528000A864A06BA84249D114F8370F401C2070C5
:105290007DE000008C56010873656D20213D205291
:1052A000545F4E554C4C000046756E6374696F6ECA
:1052B0005B25735D207368616C6C206E6F74207564
:1052C00073656420696E204953520A003000000063
:1052D00046756E6374696F6E5B25735D20736861DC
:1052E0006C6C206E6F74206265207573656420623B
:1052F00065666F7265207363686564756C6572209E
:1053000073746172740A00006D7574657820213DB4
:105310002052545F4E554C4C00000000A18E51B1FC
:10532000491E24F8341F656095F84D00A070E078A0
:10533000401CE0702BE0019971B395F84D1090F886
:105340004D20914204D205F14D02022102F0FAFBF8
:1053500094F82120294604F12C00FFF765FD0198FF
:10536000002809DD05F1640001AA0021044602F0CD
:1053700092FD204602F00DFD304602F035FF02F0AE
:1053800053F9A86C002806D102F02AFF06463046E1
:1053900002F02AFF002028E66FF001043046AC64DA
:1053A00002F022FF204620E62DE9F04104460027C6
:1053B00002F016FF804602F09AFA40F20D3550B91D
:1053C000FC49AFF2F40001F0ADF9FA492A46AFF218
:1053D000041001F044FA02F003FF064600F0D6FE86
:1053E00050B1F449AFF2401001F09CF9F1492A465E
:1053F000AFF2281001F033FA304602F0F5FE4046D5
:1054000002F0F2FE02F073FA064602F0E9FE0546EB
:10541000A06BB04207D04FF0FF342846B46402F0CE
:10542000E3FE204626E594F83710491E11F0FF01EF
:1054300084F8371018D194F8361090F84D20914226
:1054400004D004F13602022102F07CFB04F12C00AE
:10545000064600F074FE78B1A08E401CA0860020A5
:10546000A063FF2084F83600284602F0BDFE0FB18D
:1054700002F0DAF80020FDE454F82C0F2C38E0603C
:1054800090F84D00A072E07A401CE072304600F0C7
:105490005DFE0127E8E74FF0FF30704770B5154615
:1054A0000E46040006D1C34940F27B321131C2A03E
:1054B00001F0D5F932460321204601F06EFF84F851
:1054C000215004F12C002063E0620020606370BD75
:1054D00010B5040006D1B74940F297321F31B6A08B
:1054E00001F0BDF904F12C00FFF7C6FC204601F0E5
:1054F00070FF002010BD70B50C46054602F070FE2E
:10550000064600F043FE68B1AA492F31AFF2682089
:1055100001F008F9A7494FF46C722F31AFF2542013
:1055200001F09DF9304602F05FFE2946032001F0AC
:1055300064FF002807D080F8214000F12C010163AE
:10554000C1620021416370BD70B5040006D1994964
:1055500040F2CE323F3198A001F081F902F040FED6
:10556000054600F013FE68B192493F31AFF2C82002
:1055700001F0D8F88F494FF474723F31AFF2B42084
:1055800001F06DF9284602F02FFE04F12C00FFF720
:1055900073FC204601F06CFF002070BD2DE9F04740
:1055A0000D46040006D1834940F2EF324F3182A00C
:1055B00001F055F94FF0FF376DB1002602F010FEF3
:1055C0008146606B2843606304F12C00804600F044
:1055D000B6FD18B128E03846BDE8F087E56A21E05D
:1055E00095F82C20A5F12C003946D30705D0426D43
:1055F000636B9A4309D1002107E0920705D5426DFC
:10560000636B1A4001D04265F5E72D6851B990F8F7
:105610005810490703D5616B426D9143616302F0F5
:1056200069F901264545DBD1484602F0DDFD0EB1A2
:1056300001F0FAFF0020CFE72DE9FF4717460E469D
:105640000546DDF8308002F0CBFD824602F04FF9CE
:1056500040F24F4460B957495D31AFF28C3001F0F0
:1056600061F8544922465D31AFF2A03001F0F7F8FD
:1056700002F0B6FD814600F089FD60B14D495D3113
:10568000AFF2DC3001F04EF84A4922465D31AFF20C
:10569000C43001F0E4F8484602F0A6FD504602F09E
:1056A000A3FD35B9434940F252425D3142A001F0B9
:1056B000D6F84FF0FF30002E56D002F018F904460D
:1056C0000020A06402F08CFD8146F80704D0686BCE
:1056D00036EA000005D019E0B8070FD5686B3042F4
:1056E00014D0B8F1000F03D0686B3040C8F8000048
:1056F000780735D5686BB043686331E02D494FF4C6
:105700008E625D31AFF23C4001F0A9F8039868B3B6
:10571000666584F8587095F82120214605F12C0023
:10572000FFF782FB0398002809DD04F1640003AA57
:105730000021054602F0AFFB284602F02AFB48464E
:1057400002F052FD01F070FFA06C00280CD102F0B5
:1057500047FD8146B8F1000F02D0616DC8F8001016
:10576000484602F041FDA06C04B035E76FF001003F
:10577000A064F5E770B50D46040006D10D494FF45D
:1057800098626B310CA001F06AF8012D02D04FF045
:10579000FF3070BD02F024FD054604F12C00FFF738
:1057A0006BFB00206063284602F01EFD01F03CFF09
:1057B000002070BD295701086576656E7420213D73
:1057C0002052545F4E554C4C000000002DE9F04132
:1057D0001D46069F16468846040005D140F2ED425C
:1057E000F849F9A001F03BF842460421204601F0B7
:1057F000D4FD84F8217004F12C0020636663E0621C
:10580000258700206087A087E0874034646024609B
:105810004BE410B5040006D1EA494FF4A2620B3103
:10582000E9A001F01CF804F12C00FFF725FB04F1BE
:105830004000FFF721FB204601F0CBFD002010BD0A
:105840002DE9F04116460D46044602F0C9FC074614
:1058500000F09CFC68B1DB491831AFF2B45000F0A5
:1058600061FFD84940F22C521831AFF2A05000F03D
:10587000F6FF384602F0B8FC2146042001F0BDFDD9
:10588000040015D084F8216004F12C002063E0624C
:10589000A8B22087800001F000F9606348B10020C1
:1058A0006087A087E08704F14000606420642046A0
:1058B000B8E5204601F0DCFD0020B3E570B50446F4
:1058C00002F08EFC054600F061FC68B1BD4925314F
:1058D000AFF22C6000F026FFBA4940F25752253152
:1058E000AFF2186000F0BBFF284602F07DFC34B92F
:1058F000B44940F25A522531B3A000F0B0FF04F190
:105900002C00FFF7B9FA04F14000FFF7B5FA606B1D
:1059100001F075F9204601F0ABFD002049E72DE9C3
:10592000F74F82B08B46040006D1A64940F2875259
:105930003231A5A000F093FF002601F0D8FF054604
:1059400002F04EFC8046608F218F00276FF0020A24
:10595000884268D1049850B165E0AF64049830B1D2
:1059600002F03EFC009001F0C2FF38B114E0404666
:1059700002F03AFC504605B0BDE8F08F9149323153
:10598000AFF2B46000F0CEFE8E4940F2AA5232313E
:10599000AFF2C86000F063FF02F022FC814600F025
:1059A000F5FB68B187493231AFF2047000F0BAFEFE
:1059B000844940F2AA523231AFF2F06000F04FFF5A
:1059C000484602F011FC009802F00EFC94F82120E9
:1059D000294604F14000FFF727FA049800280CDD5F
:1059E000FEF7E7FF064605F1640004AA00218146A0
:1059F00002F051FA484602F0CCF9404602F0F4FBBE
:105A000001F012FEA86C0028B5D102F0E9FB804637
:105A10000498002807DDFEF7CCFF861B0498801B46
:105A2000049000D50497608F218F884295D0A28F73
:105A3000616B41F822B0A08F401C80B2A087218FFB
:105A4000884200D3A787608F401C608704F12C0038
:105A5000044600F074FB20B1404602F0C5FB002074
:105A600089E7204600F072FB404602F0BDFB01F0E2
:105A7000DBFDF4E7002252E72DE9F74F82B08B46B9
:105A8000040006D14F494FF4C36242314EA000F0EA
:105A9000E6FE002601F02BFF054602F0A1FB804642
:105AA000608F04996FF0010A084337466AD1404677
:105AB00002F09AFB50465EE7AF64049830B102F002
:105AC0008FFB009001F013FF38B114E0404602F064
:105AD0008BFB5046C5F848A04DE73A494231AFF636
