:020000040800F2
:1000000010E60020719C00087D310008A59F0008C3
:100010007F310008833100088731000800000000AC
:100020000000000000000000000000008B3100080C
:100030008D31000800000000EF9E0008712A0008C2
:100040008B9C00088B9C00088B9C00088B9C0008F4
:100050008B9C00088B9C00088B9C00088B9C0008E4
:100060008B9C00088B9C00088B9C00088B9C0008D4
:100070008B9C00088B9C00088B9C00088B9C0008C4
:100080008B9C00088B9C00088B9C00088B9C0008B4
:100090008B9C00088B9C00088B9C00088B9C0008A4
:1000A0008B9C00088B9C00088B9C00088B9C000894
:1000B0008B9C0008E13800088B9C00088B9C000892
:1000C0008B9C00088B9C00088B9C00088B9C000874
:1000D0008B9C000835380008473800088B9C0008C6
:1000E0008B9C00088B9C00088B9C00088B9C000854
:1000F0008B9C00088B9C00088B9C00088B9C000844
:100100008B9C00088B9C00088B9C00088B9C000833
:100110008B9C00088B9C00088B9C00088B9C000823
:100120008B9C00088B9C00088B9C00088B9C000813
:100130008B9C0008C93000088B9C00088B9C000831
:100140008B9C00088B9C00088B9C00088B9C0008F3
:100150008B9C00088B9C00088B9C00088B9C0008E3
:100160008B9C00088B9C00088B9C00088B9C0008D3
:100170008B9C00088B9C00088B9C00088B9C0008C3
:100180008B9C00088B9C000800F002F800F06CF8D3
:100190000AA090E8000C82448344AAF10107DA45E2
:1001A00001D100F061F8AFF2090EBAE80F0013F0C8
:1001B000010F18BFFB1A43F0010318471076020025
:1001C000307602000A444FF0000C10F8013B13F0A7
:1001D000070408BF10F8014B1D1108BF10F8015BA0
:1001E000641E05D010F8016B641E01F8016BF9D193
:1001F00013F0080F1EBF10F8014BAD1C0C1B09D1EA
:100200006D1E58BF01F801CBFAD505E014F8016B5B
:1002100001F8016B6D1EF9D59142D6D370470000ED
:100220000023002400250026103A28BF78C1FBD8FF
:10023000520728BF30C148BF0B607047662921F0C4
:10024000958464291FF0D881002070471FB521F0E4
:1002500088FC1FF0CFFD04000020002120F0B0FE3C
:10026000E0601FBD10B510BD1FF0C8FE1146FFF7BE
:10027000EDFF00F049F81FF0E6FE03B4FFF7F2FFD0
:1002800003BC03F019FA000004460D4622A007F053
:1002900060FE21462AA007F05CFE29462DA007F04B
:1002A00058FE00BFFEE710B502F063FC2E4807F0D1
:1002B00050FE2EA230A133A007F04BFE3BA007F06A
:1002C00048FE43A007F045FE4A4807F042FE05F00D
:1002D0007DFD08F0B1FD09F086FC4749474807F06D
:1002E000EDFF08F0CFFE00F034F905F000FD44A06A
:1002F00005F0F2F844A007F02CFE09F080FC05F0B0
:1003000086FF08F0DBFE10BD10B509F0D9FDFFF740
:10031000CAFF002010BD00000A0D2057726F6E67E3
:1003200020706172616D657465722076616C7565AF
:10033000206465746563746564206F6E0D0A000047
:100340002020202020202066696C65202025730D48
:100350000A000000202020202020206C696E6520EB
:100360002025640D0A000000F86C020831333A3190
:10037000303A3237000000004F63742032332032AD
:10038000303138004275696C642074696D653A09D2
:1003900009257320202573206279205461695379DF
:1003A0006E6320436F2E2C4C74640A00446576699A
:1003B0006365203A0909576972656C657373203269
:1003C0002E3447487A204149522049540A000000FF
:1003D00056657273696F6E203A09095444445F315F
:1003E000304D5F31304D5F4554485F312E312E30F6
:1003F0000A000000B46C02080000022010E6002091
:10040000756172743100000066696E736820696EF0
:10041000697420646F6E650A000000007FB50646AF
:1004200002F02EFB02F052FB02F00FFE1BF031F93E
:1004300012F0D0FA1CF0B3FC1DF0B1FF4EA007F093
:1004400088FD40F6B83009F021F900250BE00A20BC
:1004500009F01CF928466D1CB0F5967F03D34CA01B
:1004600007F077FD74E002F069FB0128EFD103F09B
:10047000E9F800F0E1F90446002C03DA4AA007F09D
:1004800068FD65E000F06AFB0446002C03DA4DA02D
:1004900007F05FFD5CE001F084FE0446002C03DA07
:1004A0004FA007F056FD53E005200F214FF40072D6
:1004B000534BCDE90032CDE902100023514A52A13D
:1004C000544808F087FF04462CB953A007F041FDBB
:1004D000504808F0CEFF00200623584A58A100904B
:1004E000594806F032FC0123002258A15C4805F06F
:1004F00021FF05200B214FF400725A4BCDE9003249
:10050000CDE902100023584A58A15A4808F062FF6A
:1005100004462CB958A007F01CFD564808F0A9FF66
:1005200005200F214FF400625C4BCDE90032CDE98C
:10053000021000235A4A5BA15E4808F04BFF0446B4
:100540002CB95DA007F005FD5A4808F092FF00BFE6
:100550007FBD1CB5142008210B020022CDE900103C
:10056000AFF247115BA008F0D1FF044614B120465A
:1005700008F07FFF00201CBD5443502F49502069D4
:100580006E697469616C697A6564210A0000000013
:100590004650474120436F6E666967204572726F0F
:1005A000722E2E2E0A000000496E74657266616319
:1005B0006520696E6974206661696C65642E2E2EF3
:1005C0000A0000004650474120466C61736820696C
:1005D0006E6974206661696C65642E2E2E0A0000B7
:1005E000756172742070726F746F636F6C20696EC6
:1005F0006974206661696C65642E2E2E0A00000005
:10060000840400203B220008756172745F63746C7F
:1006100000000000D4030020756172742070726FB6
:10062000746F636C205461736B20696E69742073FE
:10063000756363657373200A000000002C120020AC
:100640006D62737069000000E411002073656D5FD6
:1006500061747469747564655F6368616E67650071
:1006600048200020E40F0020F91E0008616E745F2E
:1006700073770000340F0020616E74656E6E612028
:10068000737774696368205461736B20696E697451
:100690002073756363657373200A000034070020BC
:1006A00059170008756172745F75706772616465CF
:1006B00000000000840600205570677261646520A8
:1006C0005461736B20696E6974207375636365731D
:1006D00073200A00696E697400000000F0B5554A85
:1006E00000250024002320E0B1FBF2F6303606F0AE
:1006F000FF0C2E466D1C00F806C0B1FBF2F602FBA3
:1007000016110A26B2FBF6F26E1E865D302E01D15E
:10071000012600E000260CB9012700E000273E403A
:100720000EB1002500E0641C5B1C0A2BDCD3F0BD7D
:1007300070B502460C4600210025002310783028B1
:1007400043D15078782802D0507858283DD19078FD
:1007500008B9002070BD022130E0505C10B9236060
:1007600001252DE0505C412802DB505C46280BDD62
:10077000505C612802DB505C662805DD505C302847
:1007800019DB505C392816DC505C302805DB505CE6
:10079000392802DC505C30380AE0505C412805DB27
:1007A000505C462802DC505C373801E0505C57381A
:1007B00000EB031301E0002502E0491C0B29CCD318
:1007C00000BF0B2934D3002532E000212AE0505C21
:1007D00010B92360012527E0505C6B2802D0505CE3
:1007E0004B2804D119B19B02236001251CE0505C09
:1007F0006D2802D0505C4D2804D119B11B0523602F
:10080000012511E0505C302809DB505C392806DCFA
:10081000505C303803EB830600EB460301E0002513
:1008200002E0491C0B29D2D300BF0B2900D30025BD
:1008300028468FE700CA9A3B7CB5012110200AF0B8
:1008400065FE01208DF8040002208DF805000020CF
:100850008DF8060001208DF807006C486C4908608F
:100860004FF4005088800846808800900A4691889E
:1008700010680AF029FC6649086869460AF0A8FB76
:10088000634B64A265A1684803F04DFE0546002D48
:1008900005DA66A007F05DFB4FF0FF307CBD624CCF
:1008A00008206A4948706A484860042008700A466F
:1008B00000212046236D98472046664908600020A5
:1008C000ECE770B504460D46EAB22146614800687F
:1008D00000F0F3FA0646304670BD70B50446214676
:1008E0005C48006800F0C7FA0546284670BD70B540
:1008F00004460D46E1B22A465648006800F002FB65
:100900000646304670BD70B504460D462A4621465F
:100910005048006800F02FFB304670BD10B54FF412
:10092000E83200214B48006800F047FA002010BD73
:100930002DE9F04104460D46164633462A46214627
:100940004448006800F0E2F907463846BDE8F08107
:1009500010B5FFF7E3FF10BD70B504460D462A46FB
:1009600021463D480068FFF7E3FF3B48006820440C
:1009700039490860002070BD10B50446012C04D12F
:10098000410322480AF0A2FB05E024B94FF40051CC
:100990001E480AF099FB10BD70B50446E1B22D481F
:1009A000006800F0CCFA0546284670BD1CB5012150
:1009B00010200AF0ABFD01208DF8040002208DF814
:1009C000050000208DF8060001208DF80700400288
:1009D000009001460D480AF077FB69460B480AF083
:1009E000F7FA4FF4007109480AF070FB0A2008F08A
:1009F0004DFE4FF4007105480AF066FB00208DF8AB
:100A00000400694601480AF0E3FA1CBD00100240E8
:100A10000C00002073706933000000006261736590
:100A200062616E640000000044120020737069204F
:100A300062757320617474616368206465766963AC
:100A400065206661696C6564210A0000040000206D
:100A5000A086010000000020140000204FF48261F5
:100A600001602C49C160002181604160704770B510
:100A700004460D46A068401C216890FBF1F201FB82
:100A800012006168884205D123A007F062FA4FF096
:100A9000FF3070BDD4E902104554A068401C2168A5
:100AA00090FBF1F201FB1200A0600020F1E770B5AD
:100AB00004460D46D4E90110884205D11AA007F07A
:100AC00048FA4FF0FF3070BD6168E068405C287004
:100AD0006068401C216890FBF1F201FB120060602D
:100AE0000020F0E70146D1E90102904201D1012046
:100AF00070470020FCE701468868401C0A6890FBAC
:100B0000F2F302FB13004A68904201D101207047C2
:100B10000020FCE7A81200207175657565206675D8
:100B20006C6C210A000000007468652071756575A1
:100B300065206973204E554C4C0A0000002107E0E7
:100B400042F6E06100BF0A00A1F1010399B2FAD1B7
:100B50000200A0F1010398B2F2D170477CB50121E7
:100B600008460AF0D3FC01208DF8040002208DF81D
:100B7000050000208DF8060001208DF8070034489C
:100B800034490860102088800846808800900A4612
:100B9000918810680AF098FA2E49086869460AF0A8
:100BA00017FA2C4B2CA22EA12F4803F0BCFC0546B3
:100BB000002D05DA2DA007F0CCF94FF0FF307CBDF9
:100BC000294C082031494870314848600420087099
:100BD0000A4600212046236D984721A000F034FDED
:100BE0002C4908600020EAE710B52A4800684FF059
:100BF000807200214369274800689847002010BD93
:100C00002DE9F04104460D46164622480068334659
:100C10002A462146D0F810C01E480068E047074623
:100C20003846BDE8F08110B5FFF7DEFF10BD70B5A6
:100C300004460D462A46214617480068FFF7E0FFA4
:100C400015480068204414490860002070BD000069
:100C50000000024020000020737069330000000093
:100C6000666C617368000000BC1600207370692018
:100C7000627573206174746163682064657669636A
:100C800065206661696C6564210A00001800002017
:100C900000127A00280000202C000020002107E02C
:100CA00042F6E06100BF0A00A1F1010399B2FAD156
:100CB0000200A0F1010398B2F2D17047F8B50646E0
:100CC0000D4600BF01236A460521304600F06EFC48
:100CD0000446002C02DA4FF0FF30F8BD9DF800000A
:100CE00000F0010000B906E00120FFF7D7FF28005F
:100CF000A5F10105E6D100BF9DF8000000F001005C
:100D000008B90020E9E74FF0FF30E6E72DE9FF4F93
:100D100083B00F4615464FF48076B7FBF6F8B7FB65
:100D2000F6F006FB10794FF0000A00243EE0281B85
:100D3000A6EB0901884201D2281B01E0A6EB0900BD
:100D4000834602208DF808004FEA18208DF809002C
:100D500008F0FF008DF80A0009F0FF008DF80B0085
:100D6000CDF800B006980319042202A9039800F0F8
:100D700041FC8246BAF1000F03DA8DA007F0E9F8D2
:100D800016E00120FFF78AFF41F288310398FFF750
:100D900095FF8246BAF1000F03DA8DA007F0D9F86B
:100DA00006E008F101084FF000095C44AC42BED3F4
:100DB00000BF504607B0BDE8F08F2DE9FC478246E2
:100DC000894614464FF48065B9FBF5F005FB109099
:100DD00020B9B4FBF5F005FB104030B186A007F058
:100DE000B8F84FF0FF30BDE8FC87B4FBF5F4D8202D
:100DF0008DF804000027002638E0B9FBF5F03044F8
:100E00004FEA80284FEA18408DF805004FEA182075
:100E10008DF8060008F0FF008DF807009DF80730F8
:100E20009DF806209DF8051080A007F092F800209C
:100E30000346042201A90090504600F0DBFB074660
:100E4000002F03DA80A007F084F811E00120FFF7FB
:100E500025FF41F288315046FFF730FF0746002F4B
:100E600003DA81A007F075F802E0761CA642C4D32D
:100E700000BF3846B7E7FEB506460C4690208DF811
:100E80000400200E8DF80500200C8DF80600200AC5
:100E90008DF80700E0B28DF8080000200346052217
:100EA00001A90090304600F0A5FB0546002D02DAAE
:100EB00075A007F04EF82846FEBDFEB507460C4665
:100EC000154691208DF804008DF80550200E8DF800
:100ED0000600200C8DF80700200A8DF80800E0B20B
:100EE0008DF8090000200346062201A9009038462B
:100EF00000F080FB0646002E02DA67A007F029F812
:100F00003046FEBD2DE9FC4107460C4615469220B1
:100F10008DF804008DF805508DF80640002003463A
:100F2000032201A90090384600F064FB0646002E1B
:100F300002DA5EA007F00DF83046BDE8FC817CB512
:100F400006460C4698208DF804008DF80540214691
:100F50005BA006F0FEFF00200346022201A90090DC
:100F6000304600F047FB0546002D02DA58A006F097
:100F7000F0FF28467CBDF8B507460C46154696207E
:100F8000009000231A469721384600F00FFB0646D2
:100F9000002E02DA3CA006F0DCFF0A20FFF77EFEFE
:100FA0002B4622466946384603F07AF93046F8BDAA
:100FB0006D637520666C61736820506167652050B1
:100FC000726F6772616D206661696C65640A00000A
:100FD0006D637520666C6173682070616765207051
:100FE000726F6772616D6D696E672074696D65649B
:100FF000206F75740A0000004572617365206F668A
:10100000667365742F6C656E677468206E6F7420EC
:101010006D756C7469706C65206F662073656374A0
:101020006F722073697A650A00000000657261734F
:101030006520616464722030782530327825303242
:1010400078253032780A00006D637520666C617314
:1010500068207061676520657261736520666169EB
:101060006C65640A000000006D637520666C617336
:101070006820706167652065726173652074696DB1
:101080006564206F75740A0073657420766761204B
:101090006661696C65640A007365742066726571C7
:1010A000206661696C65640A000000007365742045
:1010B0006D6F6465206661696C65640A00000000FC
:1010C000616E74656E6E612073772025640A00007E
:1010D00073657420616E74656E6E6120737720662F
:1010E00061696C65640A0000002107E042F6E06176
:1010F00000BF0A00A1F1010399B2FAD10200A0F1E8
:10110000010398B2F2D17047F8B505460E462F6834
:1011100000BF01236A460521384600F047FA04461D
:10112000002C02DA4FF0FF30F8BD9DF8000000F00F
:10113000010000B906E0022008F0A8FA3000A6F18C
:101140000106E6D100BF9DF8000000F0010008B9DB
:101150000020E9E74FF0FF30E6E72DE9FE4F0446B7
:101160000D461646994600BF00BFA246DAF81800A1
:10117000B0F80480B5FBF8F70B208DF80400380AAE
:101180008DF80500F8B28DF80600B5FBF8F008FB05
:101190001050C0B28DF8070000208DF808004B46B3
:1011A000052201A92046009600F038FABDE8FE8F1E
:1011B0002DE9FF4F85B004468946164600BF00BFA3
:1011C0000494049CA0698788B9FBF7FAB9FBF7F08F
:1011D00007FB109B4FF0000800254AE0701BA7EBAF
:1011E0000B01884201D2701B01E0A7EB0B000390BA
:1011F00002208DF808004FEA1A208DF809000AF045
:10120000FF008DF80A000BF0FF008DF80B000023A3
:101210001A460621206800F0C9F98046B8F1000F8F
:1012200003DA71A006F095FE25E003980090089976
:101230004B19042202A9206800F0DCF98046B8F1BD
:10124000000F03DA6FA006F084FE14E04FF4FA6199
:101250002046FFF759FF8046B8F1000F03DA72A06D
:1012600006F077FE07E00AF1010A4FF0000B039841
:101270000544B542B2D300BF404609B0BDE8F08F87
:101280002DE9FC4704468846154600BF00BFA2462C
:10129000DAF818008088DAF81810C98800FB01F61F
:1012A000B8FBF6F006FB108020B9B5FBF6F006FBA4
:1012B000105030B167A006F04CFE4FF0FF30BDE893
:1012C000FC87B5FBF6F5D8208DF8040000208DF8DA
:1012D00006008DF80700002781462FE0B8FBF6F0E6
:1012E0004844C0B28DF8050000231A460621206844
:1012F00000F05CF90746002F03DA3BA006F029FE58
:101300001EE0002000900023042201A9206800F0C4
:1013100071F90746002F03DA5CA006F01AFE0FE011
:1013200041F288312046FFF7EFFE0746002F03DA2F
:101330005EA006F00EFE03E009F10109A945CDD338
:1013400000BF05FB06F1424661A006F002FE3846EA
:10135000B5E72DE9F04780460E46B078717840EA4F
:1013600001293079F17840EA012A00270AE065482E
:1013700000EB07152888484503D16888504500D1FF
:1013800002E07F1C032FF2D300BF032F07D1524688
:1013900049465DA006F0DDFD0020BDE8F0871C2079
:1013A00008F059FF044624B961A006F0D2FD0020E0
:1013B000F3E7A561C4F80080E868606064482061D4
:1013C000AFF2431060616348E060A888E988484351
:1013D00029894843A060AA88A3685FA0E96806F04D
:1013E000B8FD2046D9E7000053463A20456E6162B9
:1013F0006C696E67205772697465206661696C65F7
:10140000640A000053463A205350414E53494F4E10
:1014100020506167652050726F6772616D20666150
:10142000696C65640A00000053463A205350414EEF
:1014300053494F4E20706167652070726F6772610B
:101440006D6D696E672074696D6564206F75740ACF
:101450000000000053463A204572617365206F66B4
:10146000667365742F6C656E677468206E6F742088
:101470006D756C7469706C65206F6620736563743C
:101480006F722073697A650A0000000053463A20A3
:101490005350414E53494F4E20706167652065722D
:1014A000617365206661696C65640A0053463A2081
:1014B0005350414E53494F4E20706167652065720D
:1014C0006173652074696D6564206F75740A00002E
:1014D00053463A205350414E53494F4E3A2053758C
:1014E000636365737366756C6C792065726173658F
:1014F000642025752062797465732040203078253A
:10150000780A0000701B020853463A20556E737526
:1015100070706F72746564205350414E53494F4E42
:10152000204944202530347820253034780A0000C2
:1015300053463A204661696C656420746F20616C83
:101540006C6F63617465206D656D6F72790A000060
:10155000B11100085B11000853463A2044657465D8
:1015600063746564202573207769746820706167EF
:10157000652073697A652025752C20746F74616C01
:101580002025752062797465730A0000002107E048
:1015900042F6E06100BF0A00A1F1010399B2FAD15D
:1015A0000200A0F1010398B2F2D17047FFB581B0FB
:1015B000064614461D462346012202A930460095E0
:1015C00002F076FD0746384605B0F0BD2DE9F84338
:1015D00004460D4616461F46DDF820803B4632463F
:1015E00029462046CDF8008002F062FD814648463B
:1015F000BDE8F8832DE9F84304460D4616461F461C
:10160000DDF820803B46324629462046CDF8008052
:1016100002F0CAFD81464846BDE8F8832DE9F84F3F
:1016200004460D4616461F46DDF82880D4F8009083
:101630003B46324629464846CDF8008002F038FD48
:1016400082465046BDE8F88F2DE9FF41804640466E
:1016500004F0ECFB07461FB9002004B0BDE8F081A0
:101660003E4627A1404608F04BFE40B900231A46EB
:10167000F0213046FFF79AFF0A20FFF787FF052386
:1016800002AA9F213046FFF791FF054605B12EE0E3
:101690009DF80C009DF80B10CDE900109DF80A3064
:1016A0009DF809209DF8081017A006F052FC9DF83F
:1016B0000800012802D020280CD105E002A93046FC
:1016C000FFF747FE04460CE002A93046FFF741FE53
:1016D000044606E09DF8081016A006F03AFC002427
:1016E00000BF00BF04B901E02046B6E700BF0020FC
:1016F000B3E710B50446204608F0B3FD10BD000066
:10170000666C61736800000053463A20476F74208E
:101710006964636F64652025303278202530327823
:101720002025303278202530327820253032780A52
:101730000000000053463A20556E737570706F724A
:10174000746564206D616E7566616374757265722F
:1017500020253032580A000019E00D48006845F68F
:10176000A521884210D10BA006F0F3FB0E4800F033
:10177000A4F8044644B1601C30B10020044908605C
:1017800021460AA006F0E5FBC82007F07FFFE4E74A
:1017900034000020757067726164652072756E2078
:1017A0002E2E2E0A00000000201700207472616E99
:1017B0007366657220646F6E65212066696C6520B2
:1017C00073697A652069732025640A0010B50346A1
:1017D0001A4600BF12F8011B2029FBD0002006E0AA
:1017E000303900EB80046000084412F8011B3029F6
:1017F00001DB3929F4DD10BD2DE9F84304460D461F
:101800009046002028604146684600F086FC18B1EA
:101810004FF0FF30BDE8F8839DF80000182813D082
:1018200006DC012809D0022809D0042823D109E0C8
:1018300041281AD061281ED118E080271EE04FF4FD
:1018400080671BE00020E5E74146684600F065FC44
:1018500040B99DF80000182804D14FF0FF302860EF
:101860000020D7E74FF0FF30D4E700BFFEA006F01E
:1018700070FB0120CEE74FF0FF30CBE700BF9DF8B3
:1018800000002070012609E0A019414600F045FC47
:1018900010B14FF0FF30BDE7701C86B2781D864254
:1018A000F2DB6178A07880F0FF00814202D04FF037
:1018B000FF30AFE72F600020ACE72DE9FF5F074660
:1018C0004FF00009002002908046009000BF0026E3
:1018D00000200190BB4600BF642203A9E448FFF743
:1018E0008BFF10B101287BD19DE04FF000080398D9
:1018F000B0F1FF3F01D068B906E0062000F02FFCF0
:10190000002004B0BDE8F09F062000F028FC012074
:10191000019086E0D6484078F1B2884203D0152085
:1019200000F01DFC7CE0002E42D1D148C078002898
:1019300037D00025CE4CE41C05E014F8012B2846D6
:101940006D1CCC490A54207808B1FF2DF5DD00222A
:1019500028466D1CC7490A54C7A006F0FAFA0025AC
:10196000641C05E014F8012B28466D1CC6490A5476
:101970002078202801D0102DF4DB002228466D1C91
:10198000C1490A540846FFF721FF81464946BFA0D6
:1019900006F0DFFA062000F0E2FB432000F0DFFB58
:1019A0003BE0062000F0DBFB01200190029038E0D4
:1019B000BB480079A8B9AE49C91C0398FEF7CCFF13
:1019C0008246BAF1000F25D0B6A006F0C2FA182060
:1019D00000F0C5FB182000F0C2FB4FF0FF3090E78D
:1019E0002AE0AF480079012814D1A149C91C039805
:1019F000FFF71DF98246BAF1000F0BD0AFA006F039
:101A0000A8FA182000F0ABFB182000F0A8FB4FF05C
:101A1000FF3076E7062000F0A2FB761C0120009044
:101A200000BF00BF1CE0182000F099FB182000F058
:101A300096FB6FF0020064E70098002801DD08F1D2
:101A40000108B8F1050F07DD182000F088FB182009
:101A500000F085FB002054E7432000F080FB00BF2E
:101A600000BF019800283FF437AF00BF00BF0298C5
:101A700000283FF42CAF00BF00BF484641E70146B5
:101A8000002070472DE9FE4305460F469046012091
:101A9000287000206870FF20A870002404E0395DE1
:101AA000E01C2954601C84B2385D08B1FF2CF6DDBF
:101AB0000021E01C29546846D8F80010FEF70EFEFD
:101AC0000026201D84B208E03046711C8EB21DF83D
:101AD00000202046611C8CB22A541DF80600002804
:101AE000F2D1264603E00020A855701C86B2832E52
:101AF000F9DBBDE8FE83F0B5074614461D46B5F593
:101B0000806F02D34FF4806C01E04FF0800C63468D
:101B10009D4201D2AC4600E09C461FFA8CF2B3F520
:101B2000806F04D14FF0020C81F800C003E04FF049
:101B3000010C81F800C04C706FEA040C81F802C0FF
:101B40003E46032007E016F801CB01F800C000F183
:101B5000010C1FFA8CF002F1030C6045F3DB9A4292
:101B60000EDC1FFA8CF007E04FF01A0C01F800C0F1
:101B700000F1010C1FFA8CF003F1030C6045F3DB5C
:101B8000F0BD10B503460C46194644F4807200BF00
:101B90004900520002F4807000B1491C01F4803009
:101BA00010B141F22100414002F480300028EFD012
:101BB00088B210BDF0B505460E460024AF1905E009
:101BC00015F8011BA0B2FFF7DCFF0446BD42F7D3B6
:101BD000A0B20021FFF7D5FF044620460021FFF701
:101BE000D0FF04462046F0BD30B50246002354180D
:101BF00002E012F8015B2B44A242FAD3D8B230BD06
:101C000070B505460E46002404E0285D00F0A7FAF2
:101C1000601C84B2B442F8DB70BD2DE9F74FADF51E
:101C2000A36D00200190814600248046002606E036
:101C3000DDF81C05805D04A98855701CC6B2FF2E16
:101C4000F6DB012001900DF5A46204A944A8FFF77A
:101C500019FF00BF832144A8FFF7D2FF0198C8B342
:101C600080210DF2131036E041424F5254200A00F9
:101C7000301B0020451F002066696C656E616D6534
:101C80003A2025730A000000351F002066696C6544
:101C90005F73697A652069732025640A000000007B
:101CA000340000206D6375312070726F6772616D52
:101CB000206661696C6564200A00000066706761D7
:101CC0002070726F6772616D206661696C65642057
:101CD0000A00000009E0FFF76DFF0546281200F03A
:101CE0003EFAE8B200F03BFA08E080210DF2131052
:101CF000FFF77AFF0390039800F031FA42F2107177
:101D000002A800F00AFA30B99DF80800062803D1AD
:101D10004FF0010800E0641CB8F1000F01D10A2C5B
:101D200098D30A2C04D3E0B20DF2245DBDE8F08F05
:101D3000DDF818B5DDF820954FF0010A59E00AF0FA
:101D4000FF024B4644A95846FFF7D5FE4FF0000866
:101D500000208DF80800002400BFB9F5806F02D381
:101D60004FF4806700E08027F81C81B244A8FFF799
:101D700047FF019860B139460DF21310FFF71AFFC3
:101D80000546281200F0EBF9E8B200F0E8F908E0A7
:101D900039460DF21310FFF727FF0390039800F068
:101DA000DEF9544902A800F0B8F9C0B99DF808005E
:101DB000062814D14FF00108B9450CD9BB44A9EB52
:101DC0000709BAF5617F01D1FF20ADE70AF10100F3
:101DD0001FFA80FA04E0BB444FF0000900E0641CE5
:101DE000B8F1000F01D10A2CB7D30A2C01D3E0B20D
:101DF0009AE7B9F1000FA2D14FF0000800208DF84A
:101E00000800002400BF042000F0A9F942F210717C
:101E100002A800F082F930B99DF80800062802D126
:101E20004FF0010800E0641CB8F1000F01D10A2C4A
:101E3000E9D30A2C01D3E0B276E74FF00008002086
:101E40008DF80800002401208DF8100100208DF885
:101E50001101FF208DF81201032604E0002044A99F
:101E60008855701CC6B2832EF8DB00BF832144A8BE
:101E7000FFF7C6FE80210DF21310FFF79BFE05460B
:101E8000281200F06CF9E8B200F069F942F2107122
:101E900002A800F042F930B99DF80800062803D1E5
:101EA0004FF0010800E0641CB8F1000F01D10A2CCA
:101EB000DCD30A2C01D3E0B236E700BF042000F0E7
:101EC0004EF942F2107102A800F027F930B99DF8DE
:101ED0000800062802D14FF0010800E0641CB8F1A8
:101EE000000F01D10A2CE9D30A2C01D3E0B21BE781
:101EF000002019E7A08601002DED028BD4E04021DF
:101F00006A48FEF700FD0021694804F090FA0028B5
:101F10007BD1684890ED010A10EE101A08461FF0B8
:101F2000AFFD41EC180B9FED640B53EC102B1FF031
:101F300075FA01D2012000E000205E4991ED010A0E
:101F4000B5EEC00AF1EE10FA01DD012100E000213A
:101F5000084090B15548007B5449897A401A0228BC
:101F600007DD5248407B01284FD00120FEF714FDC9
:101F70004BE00320FEF710FD47E04E4890ED010ACC
:101F8000B5EEC00AF1EE10FA22D290ED010A10EE81
:101F9000101A08461FF074FD41EC180B9FED480B1A
:101FA00053EC102B1FF074FB12D24048807A3F494B
:101FB000097B401A022807DD3C48407B032824D0D7
:101FC0000320FEF7E9FC20E00120FEF7E5FC1CE021
:101FD0003648807A3549097B401A022807DB3348A6
:101FE000407B032811D00320FEF7D6FC0DE02F48DC
:101FF000007B2E49897A401A022806DB2B48407B59
:10200000012802D00120FEF7C7FC2A4890ED010A02
:10201000B5EEC00AF1EE10FA2AD190ED020AB5EE43
:10202000C00AF1EE10FA23D190ED030AB5EEC00A12
:10203000F1EE10FA1CD11D48807A1C49097B401A28
:10204000022807DB1948407B032811D00320FEF744
:10205000A3FC0DE01548007B1449897A401A022838
:1020600006DB1248407B012802D00120FEF794FCD9
:102070000E48807A552810DB0C48007B55280CDB75
:102080000A48807A0949097B884203DB0320FEF76E
:1020900083FC02E00120FEF77FFC04490A4804F0BB
:1020A000B4FF642007F0F2FA29E700008020002046
:1020B0004820002068C30020CDCCCCCCCCCCEC3F59
:1020C000CDCCCCCCCCCCECBFE411002010B5044678
:1020D00007F093F8FE48FEF70EFD50B92146FC4884
:1020E000FEF7C5FC07F097F8FA4804F01BFA002049
:1020F00010BDF9A005F02DFF07F08DF84FF0FF306F
:10210000F6E710B504462146F24804F090F9801C29
:1021100008B9002010BD0120FCE770B504460D464B
:102120002846FFF7EEFF0646012E15D107F065F8A9
:10213000E748FEF7D7FC38B92146E548FEF7B7FC7B
:1021400007F069F8002070BD07F065F8E6A005F01B
:1021500000FF4FF0FF30F6E74FF0FF30F3E701B537
:1021600001236A460021E448006803F065FF00206F
:1021700008BD70B5024614460020002304E014F8A0
:10218000016B3518E8B25B1C8B42F8DB4542E8B2C4
:1021900070BD70B504460D46D84804F0C3F9002060
:1021A00070BD10B5D6A003F041FED34908600846C3
:1021B000006828B10321D048006803F0A8FE02E0BF
:1021C0004FF0FF3010BDD049CB48006803F070FFDE
:1021D00001230022CDA1C94804F0ACF8012300225C
:1021E000CDA1BC4804F0A6F80020CE490860B8484C
:1021F000FEF734FC0020E5E71CB5002000900190BC
:1022000055208DF80000AA208DF8010000208DF8DF
:102210000200A3208DF803000421C348FFF7A9FFA3
:102220008DF8040005236A460021B348006803F0D6
:1022300003FFBEA005F08DFE1CBD92B04FF000085C
:1022400000BF0A21AD4804F0F2F8002878D179E304
:10225000B448006845F6A521884204D19DF80400E1
:10226000FFF734FF6EE39DF80400B449B44A1288C6
:102270008854B3480088401CB1490880084600884B
:10228000642807DD08460188AEA005F062FE002044
:10229000AB490880A9480078552802D00020A849F9
:1022A0000880A7480088012806DDA4484078AA28AD
:1022B00002D00020A2490880A0488078001DA049D3
:1022C00009888842C3DA00209D4908809B488078AD
:1022D000001D00F0FF0899488078011D9748FFF71E
:1022E00048FF0546954810F80800A84219D0552027
:1022F0008D490870AA20487000208870A220C870FC
:1023000004218948FFF735FF8749087105230A46EC
:1023100000217948006803F08FFE91A005F019FEB6
:1023200010E38648C078C22877D00FDCB32875D078
:1023300007DCB02873D0B12872D0B22871D165E221
:102340000AE3C0280FD0C128F8D16DE0C92869D0B0
:1023500004DCC42867D0C828F0D16DE2E62872D02A
:10236000F828EBD1D9E175488078042802DDFFF721
:1023700043FF51E0002771488078012802D16F485F
:1023800007792DE06D488078022806D16B484079A6
:102390006A49097940EA012722E0684880780328E1
:1023A0000BD16648007900046449497940EA01206C
:1023B0006249897940EA010712E060488078042880
:1023C0000ED15E48007900065C49497940EA014037
:1023D0005A49897940EA01205849C97940EA0107F8
:1023E00001213846FEF76DFA0446214661A005F04A
:1023F000B0FD55204C490870AA2048708C7003210C
:102400004948FFF7B6FE4849C87004230A46002130
:102410003948006803F010FE93E2B1E001E298E170
:10242000D3E177E221E200E144488078042802DD2C
:10243000FFF7E2FEA3E0002740488078012803D19F
:102440003E4807792EE046E13C488078022806D1D4
:102450003A4840793949097940EA012722E037486A
:10246000807803280BD13548007900043349497935
:1024700040EA01203149897940EA010712E02F48FA
:10248000807804280ED12D48007900062B4949791F
:1024900040EA01402949897940EA01202749C97960
:1024A00040EA010700213846FEF70BFA04465520A2
:1024B0001D490870AA2048708C7003211A48FFF744
:1024C00058FE1949C87004230A4600210A4853E0FF
:1024D000F8210020C02100205175657565206675C2
:1024E0006C6C202121210A00517565756520656D90
:1024F0007074792021210A003C00002088210020EE
:1025000075617274320000009321000873656D5F7D
:102510006374726C5F72780073656D5F7175657559
:102520006500000034000020242100206C656E202E
:102530006572726F7220210A00000000C020002026
:102540003000002072645F696E646578206F757476
:10255000206F662072616E67652025640A000000A6
:10256000636865636B2064617461206572726F7269
:1025700020210A0025640A00006803F05DFDE0E107
:10258000F7488078042802DDFFF736FE4CE000278C
:10259000F3488078012802D1F14807792DE0F0480E
:1025A0008078022806D1EE484079ED49097940EA61
:1025B000012722E0EA48807803280BD1E848007917
:1025C0000004E749497940EA0120E549897940EA70
:1025D000010712E0E248807804280ED1E048007933
:1025E0000006DF49497940EA0140DD49897940EA3E
:1025F0000120DB49C97940EA01073846FEF76DF949
:1026000004465520D7490870AA2048708C700321D1
:10261000D448FFF7AEFDD349C87004230A46002111
:10262000D148006803F008FD8BE1CD48807804288C
:1026300002DDFFF7E1FD4DE00027C9488078012861
:1026400002D1C74807792DE0C5488078022806D115
:10265000C3484079C249097940EA012722E0C048CD
:10266000807803280BD1BE4800790004BC49497921
:1026700040EA0120BA49897940EA010712E0B848E6
:10268000807804280ED1B64800790006B44949790B
:1026900040EA0140B249897940EA0120B049C9794C
:1026A00040EA010701213846FEF721F9044655208A
:1026B000AC490870AA2048708C700321A948FFF724
:1026C00058FDA849C87004230A460021A64800689E
:1026D00003F0B2FC35E15520A2490870AA204870E9
:1026E000452088708020C870402102A8FEF70BF9B1
:1026F000402202A99B48001D1DF05CF84421994826
:10270000FFF737FD974981F8440045230A46002129
:102710009548006803F090FC13E1314693A005F062
:1027200018FC55208F490870AA2048700120887035
:102730008020C8700E7105218A48FFF71AFD89496B
:10274000487106230A4600218748006803F074FC9C
:10275000F7E08AA005F0FDFB0120FEF70DF9FEF77A
:1027600025F94FF4FA7006F091FF0020FEF704F906
:102770004FF47A7006F08AFF0026FEF7E9F801268A
:10278000F102854808F0A2FC0A2006F07FFFF10262
:10279000814808F099FC81A005F0DBFB55207149C8
:1027A0000870AA204870002088708020C87004211A
:1027B0006C48FFF7DEFC6B49087105230A460021CF
:1027C0006948006803F038FCBBE0012675A005F0FD
:1027D000C0FB552063490870AA204870002088700B
:1027E0008020C87004215F48FFF7C3FC5D49087171
:1027F00005230A4600215C48006803F01DFC45F6ED
:10280000A5206E490860002008719AE06CA005F0D0
:10281000A0FB0026FEF707FA012660A005F099FB51
:102820008FE001266EA005F094FB45F6A5206349D4
:1028300008600120087184E055204A490870AA20E8
:102840004870012088708020C87000200871052120
:102850004448FFF78EFC4349487106230A4600218D
:102860004148006803F0E8FB6BE03D4880780428AD
:1028700002DDFFF7C1FC4CE00027394880780128D1
:1028800002D1374807792DE035488078022806D1F3
:10289000334840793249097940EA012722E030483B
:1028A000807803280BD12E48007900042C494979FF
:1028B00040EA01202A49897940EA010712E02848C4
:1028C000807804280ED126480079000624494979E9
:1028D00040EA01402249897940EA01202049C9792A
:1028E00040EA01073846FEF757F8044655201D49CF
:1028F0000870AA2048708C7003211A48FFF739FC31
:102900001849C87004230A4600211748006803F0DC
:1029100093FB16E0552013490870AA204870002048
:102920008870A420C87004210E48FFF722FC0D49CE
:10293000087105230A4600210B48006803F07CFB60
:1029400000BF00BF012301AA00210748006803F06F
:102950004CFB01283FF47CAC142006F097FE70E499
:10296000C0200020242100203C000020726561640A
:1029700020636D64203A307825780A0053746172C0
:1029800074206572617365206D637520666C617378
:10299000682E2E2E0A00000000040240446F6E656F
:1029A0000A00000070726F6772616D206D637520A0
:1029B000666C6173682E2E2E0A0000003400002021
:1029C00073746172742065726173652066706761EB
:1029D00020666C6173682E2E2E2E2E2E0A000000AB
:1029E00070726F6772616D206670676120666C61DE
:1029F00073682E2E2E0A000010B500214FF00060E3
:102A000008F056F84FF4A06008F018F810BD7FB534
:102A1000684608F0AAFC4FF47A710198B0FBF1F413
:102A2000E4082146481EB0F1807F00D31BE0481E19
:102A30004FF0E022506150170F22002807DA1307E9
:102A40001E0E514B00F00F052D1F5E5503E01307BE
:102A50001D0E4E4B1D5400BF00204FF0E022906130
:102A60000720106100BF6FF0040008F039F87FBD47
:102A700010B504F089FE03F0B8F904F094FE10BD1F
:102A80001CB50121102008F041FD01208DF8040043
:102A900000208DF806008DF8070002208DF8050053
:102AA0008020009080213A4808F00EFB69463848A3
:102AB00008F08EFA8021364808F008FB052006F061
:102AC000E5FD8021324808F0FFFA1CBD1CB501214C
:102AD000102008F01BFD01208DF8040000208DF867
:102AE00006008DF8070002208DF8050003200090F5
:102AF0000121274808F0E8FA0221254808F0E4FA05
:102B00006946234808F064FA0121214808F0DEFAFA
:102B1000052006F0BBFD01211D4808F0D5FA322042
:102B200006F0B4FD02211A4808F0D0FA052006F09C
:102B3000ADFD0221164808F0C7FA1CBD1CB50121E5
:102B4000102008F0E3FC00208DF804008DF806004A
:102B50008DF8070002208DF80500400200906946BC
:102B60000B4808F035FA4FF48061094808F092FAF2
:102B70001CBD10B5FFF740FFFFF749FF00F010FE46
:102B800004A005F05BFA10BD18ED00E000E400E0E1
:102B90000010024075617274310000003EB50546B8
:102BA000FE4900200AF05BFCFC48A03890F8A51014
:102BB00090F8A400F94AA03A92F8A320CDE90020A9
:102BC0000291F648A03890F8A23090F8A12090F831
:102BD000A010F3A005F0BDF90A22FB49FB480AF05A
:102BE00080FE0A22FA49FB480AF0E9FD002406E0CB
:102BF000F84901EB441001210AF000FF641C0A2C83
:102C0000F6DB0AF0B0FB00203EBD02460020704714
:102C10000146002070472DE9F04104460D46164656
:102C20001F466FF0050004F0E3FD0020BDE8F081D1
:102C30002DE9F04104460D4616461F466FF005008B
:102C400004F0D6FD0020BDE8F08170B506460D46C3
:102C50001446012D0AD12CB10622D049204604F099
:102C60000CFE02E04FF0FF3070BD00E000BF00BF7F
:102C70000020F9E72DE9F04781460E460025FA21AC
:102C8000D54803F0D4FB5FEA000819D1D3480068A7
:102C90008768344607E062897819616804F0EDFDC1
:102CA000608905442468002CF5D1A8B20AF026FDFD
:102CB00010B9CBA005F04DF9C74803F033FC05E08F
:102CC000CAA005F046F94046BDE8F0870020FBE7C2
:102CD0002DE9F04F87B083464FF00008C14600262B
:102CE00001A80AF07BFC01A807C804AB07C304983D
:102CF000002842D00698006800F40040B8B9049853
:102D000087B2DDF814A003223946104610F0ECFB20
:102D1000064666B1344608E062890AEB080160683D
:102D200004F0ABFD608980442468002CF4D1B248E3
:102D300000688068012803D9AF480068056800E092
:102D4000069D4FF0000905E04FF000402860ED6857
:102D500009F10109A848006880684845F4D80020B6
:102D6000A54909688860A548406900F0800020B145
:102D70008020A249486100208860304607B0BDE845
:102D8000F08F1CB50121172008F0C0FB012188033A
:102D900008F016FC002008F07FFF03208DF80500E6
:102DA00002208DF8040000208DF806008DF8070041
:102DB000322000906946924808F00AF90B2201215E
:102DC0008F4808F090F90B2204218D4808F08BF908
:102DD0000B2205218A4808F086F94FF460500090D4
:102DE0006946884808F0F4F80B221146854808F037
:102DF0007AF90B220C21834808F075F90B220D217A
:102E0000804808F070F98620009069467E4808F0F6
:102E1000DFF80B2201217C4808F065F90B22022122
:102E2000794808F060F90B220721774808F05BF930
:102E30000C2000906946724808F0CAF80B22022163
:102E40006F4808F050F90B2203216D4808F04BF948
:102E500040F20340009069466A4808F0B9F80B2236
:102E60000021684808F03FF90B220121654808F06D
:102E70003AF90B220A21634808F035F9092000903D
:102E80006946614808F0A4F80B2200215E4808F06A
:102E90002AF90B2203215C4808F025F90420009050
:102EA00069465A4808F094F80B220221574808F066
:102EB0001AF91CBD08B53D208DF8000002208DF8E0
:102EC000010000208DF8020001208DF80300684603
:102ED00007F0B9FD08BD10B5B0B001214FF060603A
:102EE00008F014FB09F07AFF0AF0CFFD00BF0AF0EA
:102EF000DDFD0128FBD001A809F07BFF0020019037
:102F00004FF400000290401003904FF460200490B2
:102F1000002005904FF48040069000200790089014
:102F20004FF40060099000200A904FF400700B905D
:102F300000200C900D900E900F901090402011905A
:102F400000201290149010201590002016901790D9
:102F50001890199080201A9000201B901C901D90B2
:102F60001E901F90209021904FF000702290002022
:102F700023904FF400102490002025902690279055
:102F8000289004202990C0052A9040122B9080019F
:102F90002C9040122D9040002F9039E0A822002064
:102FA0004D414320416464726573733A2E2E2E2E78
:102FB0002E2E25642E25642E25642E25642E256450
:102FC0002E25640D0A0000003873002070360020A2
:102FD000B037002030350020B02200209C020020B5
:102FE0005478204572726F720A00000054782054A1
:102FF000696D656F75740A00A4020020009002409C
:10300000000802400004024000000240001002409C
:10301000052101A809F0A7FF10B93BA004F099FF12
:103020004FF404520021052009F03CFF0021052047
:1030300009F068FF044621463BA004F08AFF012105
:103040003D480AF04AFD30B010BD10B50024FFF72E
:1030500098FEFFF72FFFFFF73EFF38480468002077
:10306000374981F8A0000E21354880F8A110C6210B
:1030700080F8A210210C80F8A310210A80F8A41077
:1030800080F8A5402F482E49C8632F4808642F4870
:1030900048642F4888642F48C8642F48086500207A
:1030A0004865AFF2D330C1F89800AFF23740C1F8AD
:1030B0009C000023012229A12A4803F03BF92AA100
:1030C0001F4818F031FA10BD10B540200AF0F8FC86
:1030D00001280CD140200AF017FD194818F030FAE9
:1030E00004461CB1214622A004F033FF00BF01209A
:1030F0000AF000FD012801D10AF006FD4FF48030EE
:103100000AF002FD10BD000045544820696E697444
:10311000206572726F722C206D6179206265206E5D
:103120006F206C696E6B0A00307835204243522064
:103130003A307825780A000040000100107AFF1F1D
:10314000082200209D2B00080B2C0008112C0008E1
:10315000172C0008312C00084B2C000874785F777E
:1031600061697400B02200206574683000000000BE
:10317000525820657272203D25640A00704700BFD6
:10318000FEE700BFFEE700BFFEE7704770470000A4
:103190002DE9F04106460D4626B92622F249F3A054
:1031A00004F0B3FFB76DF649D7F89C00884238D1D8
:1031B000F4480068B5EB900F07D3F2480068F24975
:1031C000B1EB900F01D3082463E0EE480068B5EB43
:1031D000D00F01D310245CE0EA480068B5EB101F63
:1031E00001D3182455E0E7480068B5EB501F01D320
:1031F00020244EE0E3480068B5EB901F01D328245B
:1032000047E0E0480068B5EBD01F01D3302440E030
:10321000DC480068B5EB102F01D3382439E038249E
:1032200037E0D8480068B5EBD00F07D3D548006821
:10323000D549B1EBD00F01D300242AE0D148006872
:10324000B5EB101F01D3082423E0CE480068B5EB8E
:10325000501F01D310241CE0CA480068B5EB901F32
:1032600001D3182415E0C7480068B5EBD01F01D37F
:1032700020240EE0C3480068B5EB102F01D32824AA
:1032800007E0C0480068B5EB502F01D3302400E0C0
:1032900038242046BDE8F0812DE9F84304460E4667
:1032A0001746984624B98422B849B9A004F02DFFE6
:1032B000D4F8A400C0F8048057B154F8A40FC76034
:1032C0002068056845F4806054F8A41908600AE095
:1032D00054F8A41FC1F80CD02068056825F480605C
:1032E00054F8A4190860D4F8A000C0F8048056B1BE
:1032F00054F8A00FC6602068056845F4806054F853
:10330000A01908600AE0A74854F8A01FC860206808
:10331000056825F4806054F8A01908609C340122E7
:103320001021A06807F063FD01221021606807F0FA
:103330005EFD01221146206808F021FC0121A068F1
:1033400007F0C8FC0121606807F0C4FC54F89C0930
:103350000122022108F013FCBDE8F88370B586B0A5
:1033600006460C4626B9B4228F4980A004F0CDFE53
:10337000B06D20B9B5228C498CA004F0C6FEB56DA5
:103380006078082803DC0020ADF808000BE06078C6
:10339000102804DC4FF40060ADF8080003E06FF083
:1033A000070006B070BD30466168FFF7F1FEADF86A
:1033B0001000207800F0020018B10220ADF80A00D9
:1033C00002E00020ADF80A00207800F0010018B1FA
:1033D0000120ADF80C0002E00020ADF80C002078D0
:1033E00000F0040018B10020ADF8120002E08020C7
:1033F000ADF812000020ADF804004FF48270ADF873
:1034000006004FF40070ADF80E000720ADF8140070
:1034100055F89C0F002108F013FB01A9286808F05B
:1034200015FA0021286808F08EFB55F89C09012147
:1034300008F006FB0020B4E72DE9FE4F05460C46D8
:1034400025B9F9225F4949A004F05FFEA86D20B9B3
:10345000FA225C4955A004F058FEAE6D05F15C0BF4
:10346000D6F89C0002906F6DD4F808809BF801009C
:10347000082806D054A004F06CFD4FF0FF30BDE8E2
:10348000FE8F207C00F0010018B1B988386807F081
:103490001DFEB8F1200F0FD3D6F8E00001280BD1A4
:1034A000304694E80E00FFF7F7FE4FF0FF3106F1CB
:1034B000A80002F0BCFF3FE0B8F1000F3CD0D4F808
:1034C0000090D4F804A031E0FF200090B9F1000F83
:1034D00002D019F8010B00904648019000BF02216C
:1034E000029808F077FB20B90198401E019000284F
:1034F000F5DC0099029808F024FB3E48019000BFDB
:103500000121029808F066FB20B90198401E019045
:103510000028F5DC029808F011FBC0B20090BAF167
:10352000000F02D000980AF8010B00BF5FEA080004
:10353000A8F10108C8D100BF207CC0F3400018B139
:10354000B988386807F0C0FDA06898E710B5012178
:10355000042007F0DBFF0121C80308F020F8012157
:10356000480507F0D3FF10BDA01B0208646576690B
:10357000636520213D2052545F4E554C4C000000A5
:10358000003001406001002080A81201BA1B02082F
:103590007370695F62757320213D2052545F4E55F0
:1035A0004C4C000048000020C71B02086465766987
:1035B00063652D3E62757320213D2052545F4E5548
:1035C0004C4C0000D11B020873706920647269764C
:1035D00065206E6F7420737570706F727420313651
:1035E0006269742064617465207769647468210A73
:1035F00000000000FFFF0F001CB502208DF8040042
:1036000000208DF8060001208DF8070002208DF8BB
:10361000050006220A211F4807F065FD06220B213E
:103620001C4807F060FD06220C211A4807F05BFDDC
:103630004FF4E05000906946164807F0C9FC1CBDE5
:103640007047704710B5FFF781FFFFF7D5FFFFF711
:10365000F7FFFFF7F6FF10481049C1F89C0010482B
:10366000C1F8A0000E48A838C1F8A4000020C1F895
:10367000E000094808F09EF80123002209A107484C
:10368000A83002F057FE094A09A1044800F071FF72
:1036900010BD000000080240003C0040E82200206D
:1036A000B860024073656D300000000040000020EB
:1036B000737069330000000000BF704700BF664AA6
:1036C000128802F04002002AF9D0C2B2624B9A80FE
:1036D000704710B50121022007F018FF01211020CA
:1036E00007F06EFF0121880507F010FF0121082077
:1036F00007F00CFF0121480407F051FF01214805A4
:1037000007F004FF10BD1CB502208DF80400002056
:103710008DF8060001208DF8070000208DF80500C7
:10372000C020009069464D4807F052FC0722062150
:103730004A4807F0D8FC07221146484807F0D3FC56
:10374000602000906946464807F042FC07220521A8
:10375000434807F0C8FC07220621414807F0C3FC94
:103760001CBD08B525208DF8000000208DF8010053
:103770008DF8020001208DF80300684607F063F918
:1037800026208DF8000000208DF801008DF8020041
:1037900001208DF80300684607F055F908BD704711
:1037A0001FB5FFF796FFFFF7AEFFFFF7DAFFFFF752
:1037B000F6FF4FF4E13000900020ADF80400ADF8C2
:1037C0000600ADF80800ADF80C000C20ADF80A00BA
:1037D0006946214809F031F9224B40F2431222A1F7
:1037E000234800F06AFA012240F225511A4809F0F4
:1037F00062FA4FF4E13000900020ADF80400ADF81B
:103800000600ADF80800ADF80C000C20ADF80A0079
:103810006946184809F011F9174B40F2431217A1F5
:10382000184800F04AFA012240F22551114809F0E7
:1038300042FA1FBD10B503F0A7FF0D4800F0D6FAFD
:1038400003F0B1FF10BD10B503F09EFF0D4800F06E
:10385000CDFA03F0A8FF10BD0010014000040240A3
:10386000000C0240500000207561727431000000AD
:10387000D4250020004400405C0000207561727473
:1038800032000000342800207FB505460C46012197
:10389000022007F084FE0295ADF804400020ADF848
:1038A0000600ADF80C0001A9184808F0BAFA012288
:1038B0001146164808F056FF0121144808F03AFB5B
:1038C0001D208DF8000001208DF8010003208DF8E7
:1038D000020001208DF80300684607F0B4F87FBDB0
:1038E00010B503F051FF0121084808F052FF0128EC
:1038F00004D107480078401C05490870012103489D
:1039000008F058FF03F04FFF10BD00000004004016
:103910006800002070B504460E46154624B90822FA
:10392000FD49FEA004F0F1FB0021204607F0D2F98A
:10393000E66065600121204607F0CCF970BD70B5E6
:1039400004460E46154624B91522FA49F3A004F0A0
:10395000DCFB0021204607F0BDF9E660656001212F
:10396000204607F0B7F970BD38B505466C6D95F87F
:103970002E0000F01000002855D1E88D00F4807072
:1039800060B14FF400720021606803F052FF002024
:103990006168C1F800026168C1F80402E88D00F4B2
:1039A0000060B8B1A068006820B93022E249E3A005
:1039B00004F0ABFB0020A1688860A168486010207B
:1039C0000090A16801F15C0201F10C004023E5A127
:1039D00005F03EF8E88D00F40070E0B16068006822
:1039E00020B93C22D449E0A004F08FFB6168081D97
:1039F0004FF48062002103F01CFF00206168C1F8D1
:103A000004046168C1F808046268111D10684FF46D
:103A10008072FFF77FFF0121206809F096F8E88D9A
:103A200040F01000E885002038BD024600207047B5
:103A30000146002070472DE9F05F07468B4690460F
:103A40001E4645464FF000097C6DF88D00F48070ED
:103A500088B32DE006F034FA82466068D0F80002A0
:103A60006168D1F80412884218D06068D0F800125A
:103A7000405C05F8010B761E6068D0F80002401C1F
:103A80006168C1F800026068D0F80002B0F5007FFC
:103A90000AD300206168C1F8000205E06FF0030955
:103AA000504606F011FA05E0504606F00DFA00BF48
:103AB000002ECFD14FE0FFE7F88D00F4007080B307
:103AC000B6F5807F02D00020BDE8F09F06F0F8F93F
:103AD00082466068D0F804046168D1F8081488420E
:103AE00020D06068001D6268D2F8042481184FF469
:103AF000807228461BF019FE05F580756068D0F8C5
:103B0000040400F580706168C1F804046068D0F8AE
:103B10000404B0F5007F0AD300206168C1F80404F2
:103B200005E008E06FF00309504606F0CDF9504675
:103B300006F0CAF90FE00AE003E0206880882870E8
:103B40006D1C2068008800F020000028F5D1A5EB4E
:103B50000800B042F0D3484603F04AFEA5EB080047
:103B6000B2E72DE9F05F804691461F464FF0000A0C
:103B70004E46D8F85440B8F82E0000F4806028B1C2
:103B8000C922854985A004F0C0FA68E0B8F82E0083
:103B900000F40060002831D0A16801F10C004FF062
:103BA000FF3105F053F8054615B96FF0040A24E01B
:103BB0002E606F600020A86006F082F98346A0683E
:103BC0008068E860A068806810B1A068806885603F
:103BD000A0688560A068406858B9A0684560A3687F
:103BE0005B685A68A3685B681968A3681868FFF780
:103BF000A6FE584606F068F900BF30E098F82E009F
:103C000000F04000E0B118E030780A2809D100BF88
:103C10002068008800F080000028F9D00D2021687D
:103C2000888000BF2068008800F080000028F9D05C
:103C3000307821688880761C7F1E002FE4D10EE04A
:103C40000BE000BF2068008800F080000028F9D059
:103C5000307821688880761C7F1E002FF1D1504675
:103C600003F0C6FDA6EB0900BDE8F09F2DE9F04189
:103C700004460E4617462CB94FF49272484949A0A3
:103C800004F043FA656D012E0AD0022E11D1E08DA9
:103C900040F02000E0850021286808F056FF08E089
:103CA000E08D20F02000E0850121286808F04DFF1C
:103CB00000BF00BF0020BDE8F0812DE9F0410446BF
:103CC0000F4615461E462CB940F23B1239493AA020
:103CD00004F01BFA05F4806028B140F23F12354928
:103CE0002EA004F012FA002084F82C006063A06378
:103CF0003648E06336482064364860643648A0643D
:103D00003648E064364820656665A8B240F0030294
:103D10003946204666E00000D61B0208646D615FEC
:103D20006368616E6E656C20213D2052545F4E5574
:103D30004C4C0000EE1B0208061C020875617274F0
:103D40002D3E646D615F74782D3E646D615F6368C4
:103D5000616E6E656C20213D2052545F4E554C4C77
:103D600000000000646E0000756172742D3E727870
:103D70005F6D6F64652E646D615F72782D3E646D5A
:103D8000615F6368616E6E656C20213D2052545FF7
:103D90004E554C4C00000000151C0208300000007D
:103DA000251C020864657620213D2052545F4E5543
:103DB0004C4C0000371C020864657669636520215D
:103DC0003D2052545F4E554C4C00000069390008AC
:103DD0002B3A0008313A0008373A0008633B0008E4
:103DE0006D3C000802F048F8BDE8F08170B505466A
:103DF0006C6D40F22551206808F098FF002868D0CB
:103E0000E88D00F4807028B94FF4AC72814982A02B
:103E100004F07BF936E006F053F806462068808807
:103E20006168D1F8042288546068D0F80402401C0C
:103E30006168C1F804026068D0F80402B0F5007F40
:103E400003D300206168C1F804026068D0F804025E
:103E50006168D1F80012884210D16068D0F8000281
:103E6000401C6168C1F800026068D0F80002B0F53B
:103E7000007F03D300206168C1F80002304606F0DD
:103E800023F800BF2068008800F020000028C2D17D
:103E9000686BF0B16068D0F800026168D1F8041274
:103EA000884209D96068D0F80002C0F500706168E6
:103EB000D1F80412084406E06068D0F80402616892
:103EC000D1F80012401A0646314628466A6B9047E0
:103ED00000BF0821206808F013FF10B1206808F027
:103EE00063FE70BD2DE9F04105466C6DE88D00F470
:103EF000006028B940F28F12514952A004F005F930
:103F0000A06846682EB940F293124D4957A004F0BC
:103F1000FCF8A86B18B131682846AA6B904705F0E9
:103F2000CFFF0746B068A1684860A068406810B934
:103F30000020A1688860384605F0C6FF304604F0CE
:103F400006FFA068406850B1A3685B685A68A36820
:103F50005B681968A3681868FFF7F1FC04E0A168C2
:103F60000868002106F0B6FEBDE8F08170B5054690
:103F70006C6DE88D00F4007028B940F2BB12414925
:103F800041A004F0C2F805F09BFF06466068D0F837
:103F9000080400F580706168C1F808046068D0F812
:103FA0000804B0F5806F03D300206168C1F80804ED
:103FB0006068D0F808046168D1F80414884211D10F
:103FC0006068D0F8040400F580706168C1F80404EA
:103FD0006068D0F80404B0F5806F03D300206168F6
:103FE000C1F804046268121D6368D3F80834D1185C
:103FF000626810684FF48072FFF78CFC304605F061
:1040000063FF686B20B14FF4807128466A6B90475C
:1040100070BD00004D1C02086465766963652D3E25
:10402000666C616720262052545F444556494345DB
:104030005F464C41475F494E545F525800000000B4
:104040005E1C02086465766963652D3E666C616777
:1040500020262052545F4445564943455F464C4113
:10406000475F444D415F5458000000006461746133
:104070005F6E6F646520213D2052545F4E554C4C5D
:1040800000000000761C02086465766963652D3EB9
:10409000666C616720262052545F4445564943456B
:1040A0005F464C41475F444D415F5258000000005D
:1040B0002DE9F04385B004460E4617469846DDF8D4
:1040C000309024B91222F649F6A004F01EF8A06D33
:1040D00020B91322F249F8A004F017F8A16D01F1FC
:1040E0005C004FF0FF3102F0EAFA0546002D4ED198
:1040F000A06DD0F89800A0420FD0A06D806D04F1A3
:104100005C0102682046904705461DB9A06DC0F8C5
:10411000984002E06FF007053FE000960020019014
:104120000297049820F00100401C0490049820F0AD
:104130000200049000200390A06D806D69464268E3
:10414000204690470546002D02DA6FF0070524E06F
:1041500000200090CDF80480CDF80890049820F05D
:1041600001000490049820F00200801C04900020BC
:104170000390A06D806D69464268204690470546D1
:10418000002D02DA6FF0070507E0002504E06FF06C
:10419000070005B0BDE8F08300BFA16D01F15C0030
:1041A00002F07FFB2846F4E72DE9F04385B0044692
:1041B0000E4617469846DDF8309024B96422C4496B
:1041C000B8A003F0A2FFA06D20B96522C049BAA033
:1041D00003F09BFFA16D01F15C004FF0FF3102F095
:1041E0006EFA0546002D4ED1A06DD0F89800A04281
:1041F0000FD0A06D806D04F15C01026820469047ED
:1042000005461DB9A06DC0F8984002E06FF00705A3
:104210003FE00096002001900297049820F00100F2
:10422000401C0490049820F00200049000200390A9
:10423000A06D806D69464268204690470546002D76
:1042400002DA6FF0070524E0CDF80080002001902D
:10425000CDF80890049820F001000490049820F014
:104260000200801C049000200390A06D806D6946C0
:104270004268204690470546002D02DA6FF0070598
:1042800007E0002504E06FF0070005B0BDE8F0830B
:1042900000BFA16D01F15C0002F003FB2846F4E7CA
:1042A0002DE9F04186B004460E461746984624B9DB
:1042B000B32288497BA003F028FFA06D20B9B42267
:1042C00084497DA003F021FFA16D01F15C004FF056
:1042D000FF3102F0F4F90546ADBBA06DD0F89800AF
:1042E000A04212D0A06D806D04F15C0102682046EE
:1042F000904705461DB9A06DC0F8984005E06FF0E5
:10430000070003F075FA002527E001960297CDF823
:104310000C80059820F00100401C0590059820F0C5
:104320000200801C059000200490A06D806D01A902
:104330004268204690470546002D0DDA6FF00700D1
:1043400003F056FA09E0FFE76FF0070003F050FAB8
:10435000002006B0BDE8F08100BFA16D01F15C0056
:1043600002F09FFA2846F4E770B504460D4624B9DA
:10437000EE2259494BA003F0C8FE69785D20015533
:10438000287800F0070084F85C0069682166A06D59
:10439000D0B1A16D01F15C004FF0FF3102F08FF957
:1043A00006468EB9A06DD0F89800A04207D1A06D46
:1043B000806D04F15C010268204690470646A16DBD
:1043C00001F15C0002F06DFA304670BD014600203C
:1043D00070472DE9F047044689461746984625461A
:1043E0002DB94FF489723D492EA003F08EFEA86DC1
:1043F00028B940F2131239492FA003F086FE434634
:104400003A4600212846FFF74BFF0646002E02DB06
:104410003046BDE8F0870020FBE72DE9F047044671
:1044200089461746984625462DB94FF490722C4977
:104430001CA003F06AFEA86D28B940F22112284999
:104440001DA003F062FE4346002239462846FFF7CE
:1044500027FF0646002E02DB3046BDE8F08700202D
:10446000FBE72DE9F04104460D461646A046B8F19B
:10447000000F05D140F22D121A490AA003F045FEA3
:10448000002715B1012D07D105E031464046FFF761
:104490006BFF074600E000BF00BF3846BDE8F08173
:1044A0008E1C020864657669636520213D205254A4
:1044B0005F4E554C4C0000006465766963652D3E87
:1044C00062757320213D2052545F4E554C4C0000C4
:1044D000A41C0208BA1C0208CA1C0208DB1C020841
:1044E000EB1C0208FC1C020870B504460E462CB9F1
:1044F0004FF4A072334934A003F007FE25460C2088
:1045000085F82C003448E863002028646864334848
:10451000A8643348E86433482865032231462846B6
:1045200001F0AAFC70BD2DE9F04704468946174604
:104530009846384601F07AFC0646BEB196F82C0043
:104540000B2813D1A66549462046FFF7CDFF054647
:1045500015B12846BDE8F0870822002104F15C006F
:1045600003F067F9C4F854800020F3E74FF0FF3000
:10457000F0E72DE9F04104460F46164634B94FF4F2
:10458000B7721949AFF2C80003F0BFFD25460B20F2
:1045900085F82C000020E86328646864A864E86457
:1045A000286503223946284601F066FC0022394678
:1045B00004F15C0001F0F7FFA6650020C4F8980044
:1045C000BDE8F0810F1D020864657620213D205270
:1045D000545F4E554C4C0000CD430008D3430008B7
:1045E0001B44000863440008261D02080146002001
:1045F0000A4601E01268401C13688B42FAD17047EA
:1046000010B5FBA003F0A5FC002010BD10B503F011
:10461000D0FC002010BD2DE9FC410546F94803F00F
:1046200098FCF94803F095FC2E6846E0A6F12404B6
:1046300094F84D3022462021F4A003F08AFC94F82F
:104640004C00012803D1F5A003F083FC15E094F899
:104650004C00022803D1F4A003F07BFC0DE094F899
:104660004C0018B9F3A003F074FC06E094F84C0079
:10467000042802D1F2A003F06CFC276C00E07F1C40
:1046800038782328FBD0A16C206ECDE90001B4F866
:104690004400D4F840C0A7EB0C0CA0EB0C03D4F8FA
:1046A00034C0206CA0EB0C00B4F844C000EB0C014B
:1046B0006246E6A003F04DFC3668AE42B6D100205B
:1046C000BDE8FC8110B5EA48FFF7A5FF10BD70B545
:1046D000044625680CE0A5F12C063146E5A003F060
:1046E00038FC2868A04202D0E3A003F032FC2D6819
:1046F000A542F0D170BDF8B50546E0A003F029FC55
:10470000E6A003F026FC2E6827E0A6F1240404F1BD
:104710002C0000F095FC98B904F12C00FFF766FF1F
:1047200007460090A38E22462021E4A003F011FC4E
:1047300004F12C00FFF7CBFFB1A003F00AFC0BE063
:1047400004F12C00FFF752FF07460090A38E22468B
:104750002021DFA003F0FDFB3668AE42D5D100205A
:10476000F8BD10B5C2481030FFF7C5FF10BDF8B551
:104770000546DCA003F0EDFBE3A003F0EAFB2E68A6
:1047800021E0A6F1240404F12C0000F059FC98B9B2
:1047900004F12C00FFF72AFF074600902246202153
:1047A000E2A0636B03F0D5FB04F12C00FFF78FFF51
:1047B00093A003F0CEFB05E022462021E1A0636B2D
:1047C00003F0C7FB3668AE42DBD10020F8BD10B560
:1047D000A7483030FFF7CBFF10BDFEB50546DEA081
:1047E00003F0B7FBE6A003F0B4FB2E6813E0A6F1DC
:1047F000240404F12C00FFF7F9FE074694F8370073
:10480000A16B20232246CDE9010700911946E6A0BD
:1048100003F09FFB3668AE42E9D10020FEBD10B523
:1048200093482030FFF7D9FF10BD2DE9FC41054624
:10483000E3A003F08EFBEBA003F08BFB2E682BE0D4
:10484000A6F1240404F12C0000F0FAFBA8B904F14D
:104850002C00FFF7CBFE0746208FCDE90007638FC2
:1048600022462021E8A003F074FB04F12C00FFF79E
:104870002EFF63A003F06DFB0DE004F12C00FFF7A9
:10488000B5FE0746208FCDE90007638F2246202121
:10489000E3A003F05EFB3668AE42D1D10020BDE854
:1048A000FC8110B572484030FFF7BFFF10BDF8B56E
:1048B0000546E1A003F04DFBE7A003F04AFB2E689C
:1048C00027E0A6F1240404F12C0000F0B9FB98B90C
:1048D00004F12C00FFF78AFE07460090A38F2246C2
:1048E0002021E5A003F035FB04F12C00FFF7EFFEDB
:1048F00043A003F02EFB0BE004F12C00FFF776FE43
:1049000007460090A38F22462021E0A003F021FB60
:104910003668AE42D5D10020F8BD10B554485030AD
:10492000FFF7C5FF10BDFEB50546DDA003F011FB86
:10493000E6A003F00EFB2E6824E0A6F12404E06C50
:1049400098B1D4E90F12E06CCDE900120290224632
:104950002021E9A0636B03F0FCFA04F14400FFF7A7
:10496000B6FE27A003F0F5FA0BE0D4E90F12E06CD5
:10497000CDE90012029022462021E6A0636B03F0ED
:10498000E8FA3668AE42D8D10020FEBD10B53848EE
:104990006030FFF7C8FF10BDF8B50546E4A003F08E
:1049A000D8FAEDA003F0D5FA2E6816E0A6F124049B
:1049B000206C009022462021F2A0E36B03F0C9FA9C
:1049C00094F8210000F0010018B1F4A003F0C1FA3E
:1049D00002E0F5A003F0BDFA3668AE42E6D101F080
:1049E000F6F907463946F4A003F0B3FA0020F8BD03
:1049F00048656C6C6F2052542D5468726561642157
:104A00000A000000B46D02086C6D0208252D382ED6
:104A10002A732030782530327800000020726561DA
:104A200064792020000000002073757370656E6447
:104A30000000000020696E69742020200000000042
:104A400020636C6F73652020000000002030782503
:104A50003038782030782530387820307825303854
:104A6000782030782530387820253033640A0000EB
:104A7000B0000020257300002F00000073656D61F9
:104A800070686F7265207620202073757370656E74
:104A900064207468726561640A0000002D2D2D2D5C
:104AA0002D2D2D2D20202D2D2D202D2D2D2D2D2D5D
:104AB0002D2D2D2D2D2D2D2D0A000000252D382ECC
:104AC0002A732020253033642025643A000000003A
:104AD000252D382E2A732020253033642025640AA2
:104AE000000000006576656E7420202020736574D8
:104AF000202020202020202073757370656E642094
:104B00007468726561640A002D2D2D2D2D2D2D2DBB
:104B1000202D2D2D2D2D2D2D2D2D2D202D2D2D2DDF
:104B20002D2D2D2D2D2D2D2D2D2D0A00252D382E01
:104B30002A73202030782530387820253033643AA5
:104B400000000000252D382E2A73202030782530D3
:104B5000387820300A0000006D75746578202020B8
:104B6000206F776E657220202020686F6C64207340
:104B7000757370656E64207468726561640A000004
:104B80002D2D2D2D2D2D2D2D202D2D2D2D2D2D2D62
:104B90002D202D2D2D2D202D2D2D2D2D2D2D2D2D5F
:104BA0002D2D2D2D2D0A0000252D382E2A73202580
:104BB0002D382E2A7320253034642025640A000005
:104BC0006D61696C626F782020656E7472792073F4
:104BD000697A652073757370656E64207468726598
:104BE00061640A002D2D2D2D2D2D2D2D202D2D2DE7
:104BF0002D20202D2D2D2D202D2D2D2D2D2D2D2D0C
:104C00002D2D2D2D2D2D0A00252D382E2A732025F2
:104C10003034642020253034642025643A000000BC
:104C2000252D382E2A732025303464202025303459
:104C3000642025640A0000006D73677175657565F1
:104C400020656E7472792073757370656E6420745C
:104C500068726561640A00002D2D2D2D2D2D2D2DDE
:104C6000202D2D2D2D20202D2D2D2D2D2D2D2D2D9B
:104C70002D2D2D2D2D0A0000252D382E2A732025AF
:104C8000303464202025643A00000000252D382EA1
:104C90002A732025303464202025640A0000000097
:104CA0006D656D706F6F6C2020626C6F636B20742C
:104CB0006F74616C20667265652073757370656EC4
:104CC00064207468726561640A0000002D2D2D2D2A
:104CD0002D2D2D2D202D2D2D2D20202D2D2D2D2038
:104CE000202D2D2D2D202D2D2D2D2D2D2D2D2D2D0E
:104CF0002D2D2D2D0A000000252D382E2A7320255C
:104D00003034642020253034642020253034642061
:104D100025643A00252D382E2A732025303464204E
:104D200020253034642020253034642025640A0096
:104D300074696D657220202020706572696F6469E6
:104D40006320202074696D656F75742020202066B3
:104D50006C61670A000000002D2D2D2D2D2D2D2DAD
:104D6000202D2D2D2D2D2D2D2D2D2D202D2D2D2D8D
:104D70002D2D2D2D2D2D202D2D2D2D2D2D2D2D2D70
:104D80002D2D0A00252D382E2A7320307825303815
:104D9000782030782530387820000000616374690D
:104DA00076617465640A00006465616374697661A4
:104DB0007465640A0000000063757272656E742089
:104DC0007469636B3A3078253038780A0000000047
:104DD00010B59F48FFF7E0FD10BD70B596B00546D1
:104DE00050229C4902A81AF0E5FC9BA003F0B1F800
:104DF000A4A003F0AEF82E6816E0A6F1240494F8FF
:104E00003200009094F82C00132805DC94F82C0054
:104E100002A951F8200000E01598034622462021FF
:104E2000A3A003F096F83668AE42E6D1002016B093
:104E300070BD10B586481038FFF7CFFF10BD10B514
:104E4000A0A003F086F8A44804680DE00222A3A104
:104E5000206805F063FA00B905E0A1A0D4E90012CA
:104E600003F077F800BF0C34A14800688442EDD30A
:104E7000002010BD30B50346002400220020086049
:104E800031E0985C30280BDB985C392808DC086836
:104E9000000108609D5C08682844303808601EE006
:104EA000985C41280BDB985C462808DC0868000108
:104EB00008609D5C08682844373808600FE0985CFB
:104EC00061280BDB985C662808DC08680001086034
:104ED0009D5C086828445738086000E00124521C93
:104EE000082A00D30124002CCBD0002030BD2DE9AE
:104EF000F84F04460D46022C2AD169466868FFF730
:104F0000B9FF7CA0009903F024F8009988B2012130
:104F100007F0F8FF8146009988B2002107F0F2FF00
:104F20008246009988B2032107F0ECFF06460099FB
:104F300088B2022107F0E6FF074646EA07484146E5
:104F400071A003F006F84A46514673A003F001F839
:104F5000BDE8F88FF8B504460D46022C1FD169460E
:104F60006868FFF787FF63A0009902F0F2FF0099DD
:104F700088B24FF40452002107F094FF009988B2E0
:104F8000012107F0BFFF0646009988B2002107F013
:104F9000B9FF0746324639465FA002F0DAFFF8BD96
:104FA00070B504460D4616F0DBFB002070BD7CB5E5
:104FB00005460C46032D1AD101A96068FFF75AFF78
:104FC0006946A068FFF756FF5DA0019902F0C1FF96
:104FD0005FA0009902F0BDFF009A91B2019A90B2D1
:104FE00007F090FF064631465DA002F0B2FF0020B8
:104FF0007CBD3EB505460C46042D1FD101A9606855
:10500000FFF738FF6946A068FFF734FF02A9E068A0
:10501000FFF730FF4AA0019902F09BFF4CA00099D6
:1050200002F097FF52A0029902F093FF029B9AB2FE
:10503000009B99B2019B98B207F034FF00203EBD5F
:1050400001460868884201D1012070470020FCE732
:10505000300100203C1D02086465766963652020EC
:1050600020747970652020202020202020202020FE
:1050700020202020202072656620636F756E740AE0
:10508000000000002D2D2D2D2D2D2D2D202D2D2D11
:105090002D2D2D2D2D2D2D2D2D2D2D2D2D2D2D2D40
:1050A0002D202D2D2D2D2D2D2D2D2D2D0A000000E7
:1050B000252D382E2A7320252D32307320252D38AA
:1050C000640A00002D2D46756E6374696F6E204C66
:1050D0006973743A0A000000700000205F5F0000EE
:1050E000252D313673202D2D2025730A0000000058
:1050F0007400002052656164205048592061646446
:105100007220307825780A00504859204944203AC6
:1051100020307825780A0000424352203D20307824
:10512000255809425352203D2030782558095048CF
:10513000595F4352203D20307825580A0000000076
:1051400050485920616464723A307825780A00002A
:1051500072656720616464723A307825780A0000CD
:105160007068792076616C756520307825780A0042
:1051700076616C75653A307825780A0001207047B1
:1051800070B505460E46A9A002F0E3FEAE480468DD
:105190000EE00622ADA1206805F0C0F800B106E0DF
:1051A000D4E90002811DABA002F0D3FE00BF0C3495
:1051B000AB4800688442ECD3AAA002F0CAFE0020EB
:1051C00070BD70B505460B461446294600220020E6
:1051D00040E003E000260E70491C521C0E78202E81
:1051E00002D00E78092E01D19A42F3D39A4200D30D
:1051F00032E00E78222E1CD1491C521C44F820109B
:10520000401C09E00E785C2E04D14E78222E01D18C
:10521000491C521C491C521C0E78222E01D09A4265
:10522000F0D39A4200D317E000260E70491C521C9E
:1052300010E044F82010401C01E0491C521C0E787C
:10524000202E04D00E78092E01D09A42F5D39A422E
:1052500000D301E09A42BCD300BF70BD2DE9F041FC
:1052600006460D4600277848046815E0062277A117
:10527000206805F053F800B10DE02168881D2A462A
:10528000314605F04BF828B9A81D2168085C08B91B
:10529000A76805E000BF0C34714800688442E5D37C
:1052A00000BF3846BDE8F0812DE9F0438BB00546DC
:1052B0008946174600242DB940F213126A496BA0A3
:1052C00002F023FF2FB94FF48A72674968A002F0F9
:1052D0001CFF00E0641C285D202804D0285D0928FC
:1052E00001D04C45F6D324B94FF0FF300BB0BDE8E8
:1052F000F08321462846FFF7B1FF064616B94FF066
:10530000FF30F3E7282101A81AF0A8FA01AA4946BC
:105310002846FFF756FF8046B8F1000F02D14FF044
:10532000FF30E3E701A94046B04738600020DDE7E1
:1053300038B504460D4601E0641C6D1E2078202817
:10534000FAD020780928F7D00DB9002038BD6A4678
:1053500029462046FFF7A8FF08B90098F6E720463F
:1053600000E0401C0178202902D001780029F8D102
:1053700000210170214640A002F0EBFD4FF0FF300C
:10538000E4E710B503461A4601E0521C491C1078A8
:1053900028B1087818B110780C78A042F5D0D01A4E
:1053A00010BD2DE9F04781460026002799F800003E
:1053B00028B900210846FFF7E3FEBDE8F087224840
:1053C000046827E0062221A1206804F0A7FF00B1AD
:1053D0001FE0206800F1060848461AF087F9824667
:1053E00052464146484604F099FF88B926B94746D7
:1053F00038461AF07BF9064641463846FFF7C1FFAA
:105400000546B54200DA2E46414614A002F0A1FD41
:1054100000BF0C34124800688442D3D327B132460F
:105420003946484602F0D9FA00BFC6E752542D5417
:105430006872656164207368656C6C20636F6D6D64
:10544000616E64733A0A0000700000205F5F636D54
:10545000645F0000252D313673202D2025730A004E
:10546000740000200A0000008C1D0208636D6400B7
:10547000726574700000000025733A20636F6D6DD3
:10548000616E64206E6F7420666F756E642E0A0004
:1054900010B5FFF773FE20B1FCA1FE4804F0F8FE42
:1054A00003E0FDA1FB4804F0F3FEFDA1F94804F080
:1054B00049FFF84810BD70B504460D46F94800682C
:1054C00020B95622F849F9A002F01FFEF5480068FD
:1054D00001F028F8002070BD70B505460024F148A1
:1054E000006820B96922F649F0A002F00EFE2846B5
:1054F00000F09CFC044624B92946F2A002F029FDE4
:1055000070BDE8480068D0F82002A04200D1F7E75B
:1055100040F24311204600F0FAFC48BBE148006825
:10552000D0F8200260B1DF490968D1F8200200F00C
:1055300037FDDC490968D1F82002002100F0B8FDF0
:105540005021D848006800F5E7701AF065F900208E
:10555000D449096881F81E02D249096881F81F02FE
:10556000D0480068C0F82042DE49204600F0A0FD87
:1055700000BFC5E710B5CB48006820B99022DA49D2
:10558000CAA002F0C2FDC7480068D0F8200210BDD2
:1055900010B50446C348006820B99F22D349C3A070
:1055A00002F0B3FDBF49096881F8394010BD10B55C
:1055B000BC48006820B9AC22CD49BCA002F0A5FDD2
:1055C000B848006890F8390000F0010010BD70B5CF
:1055D0000446C8A002F0BDFCFFF7D0FD012802D1AF
:1055E0002046FFF7DEFEFFF753FF05462246294619
:1055F000C1A002F0AEFC70BD70B50446C0A002F0C0
:10560000A8FCFFF745FF054604F5E7722946BAA056
:1056100002F09FFC002070BD70B5044694F81E0295
:10562000002847D0A08F05282ADB00250EE06A1C41
:1056300002EB820304F13E0202EB031105EB85034A
:1056400002EB031050221AF070F86D1C042DEEDBF3
:1056500005EB850204F13E0101EB021050211AF026
:10566000DBF894F81E2205EB850304F13E0101EB03
:10567000031004F5E7711AF058F80520A08719E027
:10568000A18F01EB810204F13E0101EB02105021D8
:105690001AF0C2F894F81E22A18F01EB810304F1E5
:1056A0003E0101EB031004F5E7711AF03EF8A08FFC
:1056B000401CA087A08F608770BD1CB50120794970
:1056C000096881F83900FFF7E3FE044602F041FC67
:1056D00074480068D0F82002F8B902F0ACFC7149B7
:1056E0000968C1F820026F480068D0F8200228B984
:1056F00040F23B12844985A002F007FD6949096820
:10570000D1F82002774900F0D3FC66490968D1F846
:10571000200240F2431100F0FAFBDDE24FF0FF31CE
:105720006048006800F083FE00B1D5E2C6E29DF853
:1057300004001B2805D101205A49096881F8380066
:10574000BCE25848006890F8380001280FD19DF855
:1057500004005B2805D102205249096881F838000D
:10576000ACE200204F49096881F8380010E14D484B
:10577000006890F838000228F8D1002049490968EB
:1057800081F838009DF80400412836D1454800686A
:10579000408F002807DD43480068408F401E414984
:1057A0000968488704E000203E490968488785E287
:1057B0003C480068408F00EB80023A4800683E3069
:1057C00000EB021150223748006800F5E77019F02D
:1057D000ACFF3448006800F5E77019F087FFC0B2ED
:1057E0003049096881F81E022E49096881F81F02B4
:1057F0002C480068FFF700FF60E29DF80400422893
:1058000042D128480068418F26480068808F401E9A
:10581000814207DA23480068408F401C214909680B
:1058200048870CE01F480068808F38B11D48006829
:10583000808F401E1B490968488700E03EE21948F6
:105840000068408F00EB8002164800683E3000EB95
:10585000021150221348006800F5E77019F065FF47
:105860001048006800F5E77019F040FFC0B20D491C
:10587000096881F81E020B49096881F81F0209486E
:105880000068FFF7B9FE19E248E000006D73682078
:10589000000000004031002066696E73682000003F
:1058A0003E0000006C0000209A1D02087368656CC1
:1058B0006C20213D2052545F4E554C4C000000009E
:1058C000A71D020866696E73683A2063616E206ED8
:1058D0006F742066696E64206465766963653A203A
:1058E00025730A00B7540008B81D0208C91D020834
:1058F000D81D02080A00000025732573000000006F
:105900001B5B324B0D000000E71D02087368656CDD
:105910006C2D3E6465766963650000009DF80400A7
:10592000442811D1FC48006890F81F0258B1FBA030
:1059300002F00FFBF848006890F81F02401EF6497D
:10594000096881F81F02B9E19DF8040043281FD1BE
:10595000F148006890F81F02EF49096891F81E129B
:10596000884214DAEC48006890F81F22EA48006880
:1059700000F5E770815CEAA002F0EBFAE648006807
:1059800090F81F02401CE449096881F81F0295E164
:105990009DF804000D2817D1DF49096801236A46E4
:1059A000D1F82002002100F020FB012809D19DF848
:1059B000000010B90D20019005E09DF80000019055
:1059C00001E00D200190A2E09DF80400092821D1FA
:1059D000002403E0D1A002F0BCFA641CCE480068A9
:1059E00090F81F02A042F5DCCB48006800F5E77094
:1059F000FFF7EDFDC848006800F5E77019F076FE86
:105A0000C0B2C549096881F81E02C349096881F816
:105A10001F0253E19DF804007F2803D09DF8040085
:105A2000082874D1BC48006890F81F0200B945E10D
:105A3000B948006890F81E02401EB749096881F80D
:105A40001E02B548006890F81F02401EB24909685E
:105A500081F81F02B048006890F81E02AE4909683C
:105A600091F81F12884243DDAB4B1B6893F81E323E
:105A7000A94D2D6895F81F525A1BA74B1B6893F828
:105A80001F325B1CA44D2D6805F5E7755919A24B13
:105A90001B6893F81F52A04B1B6803F5E773E818C7
:105AA00001F029FF00219C48006890F81E229A48C6
:105AB000006800F5E77081549748006890F81F224D
:105AC0009548006800F5E770111896A002F041FAB9
:105AD0009148006890F81F4203E090A002F039FA64
